:020000040000FA
:1000000098920020154C0000830F0100014C000065
:10001000014C0000014C0000014C0000014C0000AC
:10002000000000000000000000000000D14D0000B2
:10003000014C0000000000002D4D0000014C0000AC
:10004000F54F0000F54F0000F54F0000F54F0000A0
:10005000F54F0000F54F0000F54F0000F54F000090
:10006000F54F0000F54F0000F54F0000F54F000080
:10007000F54F0000F54F0000F54F0000F54F000070
:1004800081F0004102E000BF83F0004330B54FEA45
:1004900041044FEA430594EA050F08BF90EA020FB2
:1004A0001FBF54EA000C55EA020C7FEA645C7FEA45
:1004B000655C00F0E2804FEA5454D4EB5555B8BF68
:1004C0006D420CDD2C4480EA020281EA030382EAD9
:1004D000000083EA010180EA020281EA0303362D6B
:1004E00088BF30BD11F0004F4FEA01314FF4801C3E
:1004F0004CEA113102D0404261EB410113F0004F50
:100500004FEA03334CEA133302D0524263EB430306
:1005100094EA050F00F0A780A4F10104D5F1200EA4
:100520000DDB02FA0EFC22FA05F2801841F10001FF
:1005300003FA0EF2801843FA05F359410EE0A5F1D3
:1005400020050EF1200E012A03FA0EFC28BF4CF004
:10055000020C43FA05F3C01851EBE37101F00045BA
:1005600007D54FF0000EDCF1000C7EEB00006EEBC7
:100570000101B1F5801F1BD3B1F5001F0CD3490851
:100580005FEA30004FEA3C0C04F101044FEA4452A8
:1005900012F5800F80F09A80BCF1004F08BF5FEA2F
:1005A000500C50F1000041EB045141EA050130BD0F
:1005B0005FEA4C0C404141EB0101013C28BFB1F521
:1005C000801FE9D291F0000F04BF01460020B1FA6C
:1005D00081F308BF2033A3F10B03B3F120020CDA3F
:1005E0000C3208DD02F1140CC2F10C0201FA0CF01D
:1005F00021FA02F10CE002F11402D8BFC2F1200C82
:1006000001FA02F120FA0CFCDCBF41EA0C01904037
:10061000E41AA2BF01EB0451294330BD6FEA040480
:100620001F3C1CDA0C340EDC04F11404C4F120026B
:1006300020FA04F001FA02F340EA030021FA04F37D
:1006400045EA030130BDC4F10C04C4F1200220FAD4
:1006500002F001FA04F340EA0300294630BD21FA12
:1006600004F0294630BD94F0000F83F4801306BFD8
:1006700081F480110134013D4EE77FEA645C18BFCC
:100680007FEA655C29D094EA050F08BF90EA020F63
:1006900005D054EA000C04BF1946104630BD91EA5B
:1006A000030F1EBF0021002030BD5FEA545C05D15E
:1006B0004000494128BF41F0004130BD14F580049D
:1006C0003CBF01F5801130BD01F0004545F0FE4111
:1006D00041F470014FF0000030BD7FEA645C1ABF46
:1006E000194610467FEA655C1CBF0B46024650EA7D
:1006F000013406BF52EA033591EA030F41F40021A9
:1007000030BD00BF90F0000F04BF0021704730B52E
:100710004FF4806404F132044FF000054FF0000103
:1007200050E700BF90F0000F04BF0021704730B5C4
:100730004FF4806404F1320410F0004548BF404299
:100740004FF000013EE700BF42004FEAE2014FEAEE
:1007500031014FEA02701FBF12F07F4393F07F4FC9
:1007600081F06051704732F07F4208BF704793F0CC
:100770007F4F04BF41F40021704730B54FF46074DF
:1007800001F0004521F000411CE700BF50EA0102E2
:1007900008BF704730B54FF000050AE050EA01028B
:1007A00008BF704730B511F0004502D5404261EBFB
:1007B00041014FF4806404F132045FEA915C3FF43C
:1007C000D8AE4FF003025FEADC0C18BF03325FEAD9
:1007D000DC0C18BF033202EBDC02C2F1200300FA8A
:1007E00003FC20FA02F001FA03FE40EA0E0021FAAF
:1007F00002F11444BDE600BF70B54FF0FF0C4CF49D
:10080000E06C1CEA11541DBF1CEA135594EA0C0F4E
:1008100095EA0C0F00F0DEF82C4481EA030621EA89
:100820004C5123EA4C5350EA013518BF52EA0335C4
:1008300041F4801143F4801338D0A0FB02CE4FF076
:100840000005E1FB02E506F00042E0FB03E54FF0A6
:100850000006E1FB03569CF0000F18BF4EF0010E9E
:10086000A4F1FF04B6F5007F64F5407404D25FEA9A
:100870004E0E6D4146EB060642EAC62141EA55514D
:100880004FEAC52040EA5E504FEACE2EB4F1FD0C8F
:1008900088BFBCF5E06F1ED8BEF1004F08BF5FEA0D
:1008A000500E50F1000041EB045170BD06F00046BF
:1008B00046EA010140EA020081EA0301B4EB5C046C
:1008C000C2BFD4EB0C0541EA045170BD41F4801164
:1008D0004FF0000E013C00F3AB8014F1360FDEBF89
:1008E000002001F0004170BDC4F10004203C35DA65
:1008F0000C341BDC04F11404C4F1200500FA05F3E8
:1009000020FA04F001FA05F240EA020001F0004288
:1009100021F0004110EBD37021FA04F642EB0601FE
:100920005EEA430E08BF20EAD37070BDC4F10C0428
:10093000C4F1200500FA04F320FA05F001FA04F2EC
:1009400040EA020001F0004110EBD37041F10001D8
:100950005EEA430E08BF20EAD37070BDC4F12005E3
:1009600000FA05F24EEA020E20FA04F301FA05F24B
:1009700043EA020321FA04F001F0004121FA04F2F3
:1009800020EA020000EBD3705EEA430E08BF20EAC3
:10099000D37070BD94F0000F0FD101F000464000FD
:1009A00041EB010111F4801F08BF013CF7D041EA7F
:1009B000060195F0000F18BF704703F00046520083
:1009C00043EB030313F4801F08BF013DF7D043EA54
:1009D0000603704794EA0C0F0CEA135518BF95EA0A
:1009E0000C0F0CD050EA410618BF52EA4306D1D191
:1009F00081EA030101F000414FF0000070BD50EAB0
:100A0000410606BF1046194652EA430619D094EA39
:100A10000C0F02D150EA013613D195EA0C0F05D123
:100A200052EA03361CBF104619460AD181EA030177
:100A300001F0004141F0FE4141F470014FF000002F
:100A400070BD41F0FE4141F4780170BD70B54FF0CA
:100A5000FF0C4CF4E06C1CEA11541DBF1CEA13554A
:100A600094EA0C0F95EA0C0F00F0A7F8A4EB05042C
:100A700081EA030E52EA03354FEA013100F0888023
:100A80004FEA03334FF0805545EA131343EA1263EC
:100A90004FEA022245EA111545EA10654FEA0026A1
:100AA0000EF000419D4208BF964244F1FD0404F55A
:100AB000407402D25B084FEA3202B61A65EB0305B6
:100AC0005B084FEA32024FF480104FF4002CB6EB73
:100AD000020E75EB030E22BFB61A754640EA0C00F3
:100AE0005B084FEA3202B6EB020E75EB030E22BF33
:100AF000B61A754640EA5C005B084FEA3202B6EB74
:100B0000020E75EB030E22BFB61A754640EA9C0032
:100B10005B084FEA3202B6EB020E75EB030E22BF02
:100B2000B61A754640EADC0055EA060E18D04FEAC0
:100B3000051545EA16754FEA06164FEAC30343EA60
:100B400052734FEAC2025FEA1C1CC0D111F4801F2D
:100B50000BD141EA00014FF000004FF0004CB6E726
:100B600011F4801F04BF01430020B4F1FD0C88BFC5
:100B7000BCF5E06F3FF6AFAEB5EB030C04BFB6EBD0
:100B8000020C5FEA500C50F1000041EB045170BDC3
:100B90000EF0004E4EEA113114EB5C04C2BFD4EBF0
:100BA0000C0541EA045170BD41F480114FF0000E74
:100BB000013C90E645EA060E8DE60CEA135594EAF0
:100BC0000C0F08BF95EA0C0F3FF43BAF94EA0C0FF3
:100BD0000AD150EA01347FF434AF95EA0C0F7FF468
:100BE00025AF104619462CE795EA0C0F06D152EABC
:100BF00003353FF4FDAE1046194622E750EA4106A0
:100C000018BF52EA43067FF4C5AE50EA41047FF4B0
:100C10000DAF52EA43057FF4EBAE12E74FF0FF3C15
:100C200006E000BF4FF0010C02E000BF4FF0010CE6
:100C30004DF804CD4FEA410C7FEA6C5C4FEA430C5F
:100C400018BF7FEA6C5C1BD001B050EA410C0CBFAE
:100C500052EA430C91EA030F02BF90EA020F002010
:100C6000704710F1000F91EA030F58BF994208BF77
:100C700090422CBFD8176FEAE37040F00100704734
:100C80004FEA410C7FEA6C5C02D150EA013C07D18B
:100C90004FEA430C7FEA6C5CD6D152EA033CD3D0D6
:100CA0005DF8040B704700BF8446104662468C46D0
:100CB0001946634600E000BF01B5FFF7B7FF002803
:100CC00048BF10F1000F01BD4DF808EDFFF7F4FF2C
:100CD0000CBF012000205DF808FB00BF4DF808EDB7
:100CE000FFF7EAFF34BF012000205DF808FB00BFDA
:100CF0004DF808EDFFF7E0FF94BF012000205DF8FC
:100D000008FB00BF4DF808EDFFF7CEFF94BF0120B0
:100D100000205DF808FB00BF4DF808EDFFF7C4FFA9
:100D200034BF012000205DF808FB00BF4FEA4102FC
:100D300012F5001215D211D56FF47873B3EB62522D
:100D400012D94FEAC12343F0004343EA505311F054
:100D5000004F23FA02F018BF404270474FF00000E6
:100D6000704750EA013005D111F0004008BF6FF024
:100D7000004070474FF00000704700BF4FEA41024B
:100D8000B2F1E04324BFB3F5001CDCF1FE5C0DD9E9
:100D900001F0004C4FEAC0024CEA5070B2F1004F33
:100DA00040EB830008BF20F00100704711F0804F36
:100DB00021D113F13872BCBF01F00040704741F4FB
:100DC00080114FEA5252C2F11802C2F1200C10FAFF
:100DD0000CF320FA02F018BF40F001004FEAC123E3
:100DE0004FEAD32303FA0CFC40EA0C0023FA02F387
:100DF0004FEA4303CCE77FEA625307D150EA01335D
:100E00001EBF4FF0FE4040F44000704701F000402C
:100E100040F0FE4040F40000704700BF7BB972B95B
:100E20000029BEBF00204FF0004106E008BF0028A7
:100E30001CBF6FF000414FF0FF3000F0CBBDADF1B3
:100E4000080C6DE904CE002909DB002B1ADB00F049
:100E50000CFEDDF804E0DDE9022304B070474042F7
:100E600061EB4101002B1BDB00F0FFFDDDF804E02E
:100E7000DDE9022304B0404261EB4101524263EBE1
:100E800043037047524263EB430300F0EEFDDDF88D
:100E900004E0DDE9022304B0404261EB4101704708
:100EA000524263EB430300F0E0FDDDF804E0DDE9CE
:100EB000022304B0524263EB4303704753B94AB96B
:100EC000002908BF00281CBF4FF0FF314FF0FF3052
:100ED00000F080BDADF1080C6DE904CE00F0C5FD59
:100EE000DDF804E0DDE9022304B07047D0B500224C
:100EF0000B4B06460F46FFF77FFC00F06DFD0446E6
:100F0000FFF700FC0022074BFFF776FC02460B467A
:100F100030463946FFF7B8FA00F05EFD2146D0BDF5
:100F20000000F03D0000F04103685A004CBF43F060
:100F3000004323F00043184470472DE9F04706466C
:100F4000174641B301394FF00009884609EB080400
:100F500004EBD474641006EBC4054FEAC40A2846B7
:100F6000FFF7E2FFA14204D1B84204D82846BDE809
:100F7000F087B84204D9A1450DD004F1FF38E5E768
:100F80000AF108003044FFF7CFFF0138B842EDD234
:100F900004F10109DAE70025E8E7012806D0022874
:100FA00006D00028034818BF002070470248704749
:100FB00002487047B5150000B9150000BD150000C6
:100FC0001F4B37B504468D1E4BB101A92846AFF320
:100FD000008048B900230920236103B030BD1948BF
:100FE000194B1B1ADB10019301992A46FFF7A5FF45
:100FF00001460028EED0FFF797FF4B68A064012B55
:101000001AD0002B01F1040010DBFFF78DFF002345
:10101000C4E913030368002B0ADAC3F30360FFF784
:10102000BCFF03460028D5D00020D5E70123EFE719
:10103000FFF77AFF0346F7E700230520CCE700BF60
:101040000000000024680100B46901000368DA07A9
:1010500010B5044605D49B0700F1480018D500F0F0
:10106000F7FB2368590703D404F1D00000F0F8FB24
:1010700023681A0703D404F5A87000F0F9FB23686D
:10108000DB0608D404F5E870BDE8104000F034BC7D
:1010900000F0D6FBE5E710BD092070470346006865
:1010A00000B118447047704770B505460C46216C76
:1010B0002846FFF785FF064608B104F0B1F9236C16
:1010C0002246294601206B612B6998470828EED0FB
:1010D0000728F2D13046216CFFF7E5FF201D00F014
:1010E000A3FB2DE9F0470C1DADF5727DD0F80C90F7
:1010F0000746D0F818A0164603AD0DF108080FCC2E
:101100000FC50FCC0FC50FCC0FC594E80F0085E8B5
:101110000F000025C8F800500936D8F840103846AE
:10112000FFF74EFF0446F6B268BBD8F840304FF4E4
:10113000F07241467AA87B6115F007F93B697AAAFB
:10114000394630469847889B0546C8F844303A46A9
:101150003B4631460120CDE9008AC847C0B9C4B931
:101160004FF4F0727AA94046264615F0EEF8082DA5
:10117000D2D0072D0CD12046D8F84010FFF793FFAE
:1011800003A800F051FB46F01006D8F83830DCE731
:10119000092420460DF5727DBDE8F087406C70474C
:1011A000F0B5CB6BF9B00D1D06460B640F4601ACD4
:1011B0000FCD0FC40FCD0FC40FCD0FC495E80F0096
:1011C00084E80F004FF0FF33009310993046FFF78B
:1011D000F7FE78B933696A463146984708280446CD
:1011E000F3D06846FFF732FF062C03D1394630466C
:1011F000FFF75AFF092079B0F0BD10B48261DA6BB5
:10120000C16019461A64002210BC6AE770B54369D0
:101210000446C6680D460B6426B10122FFF761FF44
:1012200004F0FEF803690A460146022098470728A1
:1012300005D00828F4D129462046FFF735FF30466F
:10124000296CFFF730FF281D00F0EEFAC26802B9E2
:10125000A6E7CA6B0A64002243E770478368014629
:101260000BB1012018477047012910B50446084604
:1012700005D005D9C81E01288CBF0220012010BD51
:1012800043B90F2A06D804EB8204029A1846616813
:101290001160F4E70220F2E71FB503AB0A460093A2
:1012A00000231946FFF7E0FF039805B05DF804FB43
:1012B000012910B50446084605D005D9C81E0128E5
:1012C0008CBF0220012010BD43B90F2A06D8029915
:1012D00004EB8204184609686160F4E70220F2E733
:1012E0001FB503AB03920A46009300231946FFF78C
:1012F000DFFF05B05DF804FBF0B5D36BADF50F7DF6
:10130000141D064613640F4617AD0FCC0FC50FCC46
:101310000FC50FCC0FC594E80F0085E80F004FF004
:10132000FF33169326996846FFF74AFE90B90C21C1
:1013300016A86A46FFF7D4FF394616A8B04748B941
:10134000049B16AA6946082098470528044602D03F
:101350000928E7D1092416A8FFF778FE20460DF5E5
:101360000F7DF0BD2DE9F04FCD6C87B017460C46D0
:1013700055F8042B00F003099A4604953BBB120272
:101380008DF8153003230392B9F1020F8DF8143054
:10139000236D08BFA56B13F0010322D100F00808EC
:1013A00000932B6843BB03A9384600F0D1FC00280A
:1013B00040F0FB80009BDBB10F213846FFF76CFF4C
:1013C0000E2102463846FFF78BFF794A55E0130C91
:1013D00012048DF81530DBB2039205EB830502236E
:1013E000D2E703A9384600F0B3FC002840F0DD80C6
:1013F000082007B0BDE8F08FBAF1020FA26C4FF0E1
:101400000F01384607BFD5F804B005F10806B5F856
:1014100002B02E1D18BF2B882BF001050193154437
:10142000FFF73AFF019B854229D823F001022A44A5
:10143000824294BF002201224FEA4B0003F00103D5
:1014400000F0020040EA0305012D1AD0022D5ED003
:10145000002D40F0AA80351DB9F1000FA1D0002A5F
:101460009FD03046FFF760FDA5630646204614F086
:101470003AFD002800F0998032460F213FE000221B
:10148000DAE7B9F1000F26D1002A3DD0736832683F
:10149000991C4FEAD27200F0888004F158010133A0
:1014A000029109D0301DFFF7F9FD02AB014620463D
:1014B0000CF054FC054638B30D213846FFF7ECFE1E
:1014C000022D029B206202D1E36204F12C0306206C
:1014D000C4E909368DE7256A0D213846FFF7DCFEA1
:1014E000854211D1A36A9E420ED13046FFF71CFD02
:1014F0000F2102463846FFF7F3FE22460021384608
:10150000FFF7EEFE072074E706F1080549E73568A6
:1015100025F00045B9F1000F2AD1A2B1B8F1000FB2
:1015200019D085B9CB4617E00BF1010B019B0022C6
:1015300006EB8B000293FFF7B1FD02AB014620469C
:101540000CF00CFC58B13368002B00DA043601357E
:1015500006EB850525E7C34604F158030193AB4527
:10156000E2D10D213846FFF797FE029B2062AEE7DD
:10157000D4F820B00D213846FFF78EFE8345E2D126
:10158000A36A9E42DFD14FF0000B0423A562C4E999
:101590000BB3F318636333685B4503DA681C06EB2F
:1015A0008000A3E701230093D1E7092021E700BFD2
:1015B000DDE100000023D5E60123D3E60223D1E6D6
:1015C0002DE9F0410546C2B014461E46042925D82F
:1015D000DFE811F005001C002400D6000301EEB97D
:1015E000836B92B20121043001FA06F717421CBF47
:1015F00053F8047B40F826700136102EF4D1A6046F
:1016000000D4AB63002042B0BDE8F081012E4FEA68
:10161000124794B204D13B19102B41D90220F2E7B2
:10162000052EFBD107EB0408B8F1200FF6D80F2FD9
:101630004DD9002CE6D00368A046580708D523F002
:101640000403284640F8D03B00F00EF90F2F48D98C
:10165000684600F009F9AB6B102F3A4642A94FEAF1
:10166000480838BF10221C4608F1FF3801EBC202BF
:101670004FEA8801A2F5C472101F02EB880254F8E9
:1016800004CB40F804CF8242F9D10A1D012E134445
:1016900017D00F2FAB636FD9684600F0E1F8B1E7C0
:1016A000102FBBD00368DA0705D523F0030340F8F9
:1016B000483B00F0C9F820A800F0C6F8AB6B002C3E
:1016C0003FD1043320A8AB6300F0BAF89AE7B8F131
:1016D000100F03682DD9DC07A8F1100842D4580771
:1016E000ADD420A8C7F1100400F0B6F8684600F0A9
:1016F000BBF820AA6400AB6B02EBC702013C101FD1
:10170000A10002EB84021C4654F804CB40F804CF3D
:101710009042F9D10A1D1344B8F1000F9CD1012E5B
:10172000CFD00F2FAB633FF66DAF20A800F090F83D
:1017300068E7D9070DD420A800F08EF8AB6B002C19
:10174000F3D0640020AA4FF0000802EBC702013C6E
:10175000D5E723F0010343F0020340F8483B00F0D3
:101760007BF8E8E723F0010343F0020340F8483B2D
:1017700000F072F82B68B2E720A800F069F88BE758
:10178000032E7FF44BAF97B2160C07EB1244102CCC
:101790003FF644AF0368190706D523F0080303603A
:1017A00000F5A87000F086F820A800F083F820ABC0
:1017B000AA6BF90003EBC60303EBC707D41ABB42BD
:1017C00003EB040005D10A4420A8AA6300F050F8F6
:1017D00018E7006843F8040BF1E7002E7FF41EAF12
:1017E000102A3FF61BAF0368DA0606D523F0100374
:1017F000036000F5E87000F089F820AE304600F094
:1018000085F8AB6B0022012101FA02F020421CBFD7
:1018100053F8040B46F822000132042AF4D1304672
:10182000AB6300F069F8EDE600F1340191E83800AF
:101830009C46A6464CF8045D90E8FF0FE54600BDC7
:1018400090EC210B704700BF80EC210B704700BF6C
:1018500090EC200B704700BF80EC200B704700BF5E
:10186000D0EC200B704700BFC0EC200B704700BFCE
:10187000F0EC0201F0EC0211F0EC0221F0EC02318C
:10188000F0EC0241F0EC0251F0EC0261F0EC02717C
:10189000F0EC0281F0EC0291F0EC02A1F0EC02B16C
:1018A000F0EC02C1F0EC02D1F0EC02E1F0EC02F15C
:1018B000704700BFE0EC0201E0EC0211E0EC022115
:1018C000E0EC0231E0EC0241E0EC0251E0EC0261BC
:1018D000E0EC0271E0EC0281E0EC0291E0EC02A1AC
:1018E000E0EC02B1E0EC02C1E0EC02D1E0EC02E19C
:1018F000E0EC02F1704700BFB0FC0181B0FC019147
:10190000B0FC01A1B0FC01B1704700BFA0FC018197
:10191000A0FC0191A0FC01A1A0FC01B1704700BF97
:10192000EC4600B52DE900502DE9FF1F4FF00003F4
:101930002DE90C0001A9FFF733FCDDF840E012B0FF
:10194000704700BFEC4600B52DE900502DE9FF1FA0
:101950004FF000032DE90C0001A9FFF757FCDDF85B
:1019600040E012B0704700BFEC4600B52DE90050D2
:101970002DE9FF1F4FF000032DE90C0001A9FFF72F
:1019800065FCDDF840E012B0704700BFEC4600B5E2
:101990002DE900502DE9FF1F4FF000032DE90C0049
:1019A00001ABFFF72AFCDDF840E012B0704700BF42
:1019B000EC4600B52DE900502DE9FF1F4FF0000364
:1019C0002DE90C0001AAFFF797FCDDF840E012B00A
:1019D000704700BF704700BF4A0011D212F50012D5
:1019E00011D20DD56FF47873B3EB62520ED44FEA77
:1019F000C12343F0004343EA505323FA02F07047F7
:101A00004FF00000704750EA013002D14FF0FF3034
:101A100070474FF00000704710F8012B11F8013BA0
:101A2000012A28BF9A42F7D0D01A7047034613F80C
:101A3000012B002AFBD1181A0138704738B5002253
:101A4000002304460D46FFF749F928B920462946E8
:101A5000BDE83840FFF74ABA204605F10041FFF7DC
:101A600045FA404261EB410138BD2DE9F047864619
:101A70008C460846089E154674461946002B40F0D1
:101A8000C1808542B2FA82F245D94AB1C2F120033F
:101A900000FA02FC954094402EFA03F343EA0C0C42
:101AA0004FEA154EA8B2230CBCFBFEF80EFB18CC77
:101AB00008FB00F943EA0C43994528D9EB1808F1D3
:101AC000FF3704D2994502D9A8F102072B44A3EBB2
:101AD0000903A4B2B3FBFEFC0EFB1C330CFB00F0AD
:101AE00044EA0344A04214D92C190CF1FF3304D268
:101AF000A04202D9ACF102032C44241A43EA074065
:101B00001EB1D440002334607360BDE8F0874746BF
:101B1000DDE76346F1E792BB431B01214FEA154E17
:101B2000AFB2200CB3FBFEFC0EFB1C330CFB07F822
:101B300040EA0343984561D9EB180CF1FF3004D219
:101B4000984502D9ACF102002B44A3EB0803A4B2E0
:101B5000B3FBFEFC0EFB1C330CFB07F744EA03440B
:101B6000A7424DD92C190CF1FF3304D2A74202D958
:101B7000ACF102032C44E41B43EA0040C0E7C2F18D
:101B800020039540944020FA03F12EFA03F34FEA24
:101B9000154E9040AFB20343B1FBFEFC0EFB1C1090
:101BA000190C0CFB07F841EA0041884522D9691855
:101BB0000CF1FF3004D2884502D9ACF1020029446F
:101BC000A1EB08019BB2B1FBFEFC0EFB1C110CFB50
:101BD00007F743EA01439F420ED9EB180CF1FF319E
:101BE00004D29F4202D9ACF102012B44DB1B41EA33
:101BF000004193E76046E3E76146F7E76046A4E704
:101C00006346B8E7834206D916B9002108467CE747
:101C1000C6E900E0F9E7B3FA83F78FB9834201D34D
:101C2000724508D8BEEB020460EB030301209C461A
:101C30001EB9002169E73846FAE7C6E9004CF8E723
:101C4000C7F1200CBB400EFA07F522FA0CF42EFA6D
:101C50000CF1BA401C4320FA0CF3B8404FEA144987
:101C600001431FFA84FEB3FBF9F809FB18300B0C93
:101C700008FB0EFA43EA00439A4540D9E31808F1FD
:101C8000FF3004D29A4502D9A8F102002344A3EB05
:101C90000A0389B2B3FBF9F809FB183308FB0EFEFF
:101CA00041EA03418E452CD9611808F1FF3304D273
:101CB0008E4502D9A8F10203214443EA0040A1EB7A
:101CC0000E01A0FB02984145CE46434602D306D101
:101CD0004D4504D20138B9EB020E68EB0403002E27
:101CE000A7D0B5EB0E0261EB030101FA0CFC22FA5E
:101CF00007F3F9404CEA0303C6E9003199E740468F
:101D0000C5E74346D9E7027A03467AB9427A82B1F7
:101D1000013A42724268111D12680260032241605A
:101D20001A721A68100E12021A607047013AD2B283
:101D3000F6E7B02070471FB503AB0C2200930023D9
:101D40001946FFF791FA039805B05DF804FBF2E736
:101D50002DE9F043054685B00E464FF000083046A9
:101D6000FFF7D1FFB028044615D1B8F1000F0ED10E
:101D700003AC43460E22414628460094FFF774FA0E
:101D800043460F22414628460094FFF791FA00206F
:101D900005B0BDE8F08302061DD44FEA8009002398
:101DA00003AF0D225FFA89F9194628460097FFF71D
:101DB0005BFA09F10409039B14F0400F14BFA3EB75
:101DC00009034B440393002300970D22194628462C
:101DD000FFF76EFAC3E700F0F003802B18D104027E
:101DE0003046FFF790FF0443B4F5004F01D10920BE
:101DF000CEE7240100232846A2B21946FFF7E0FBF4
:101E00000028F4D114F4004F18BF4FF00108A6E7E2
:101E1000902B0DD100F00D030D2BE8D003AF002364
:101E200000F00F02284619460097FFF71DFACAE78F
:101E3000A02B13D1C3434FF47F6203F007031A4171
:101E4000030702F47F6201D542F480420023194661
:101E50002846FFF7B5FB002881D0C8E7B02B46D154
:101E6000B12808D13046FFF74EFF431E0246DBB2D1
:101E70000E2BEBD9BBE7B22820D1002303AC0D22F7
:101E80002846194600940227FFF7EEF93046FFF77F
:101E90003AFF00F07F0110F08003039A01FA07F186
:101EA00005D102F5017200940A4403928DE70A44B9
:101EB000304607370392FFF726FFEAE7B3280BD136
:101EC0003046FFF720FF0123020300F00F0002F469
:101ED000702201300243BAE700F0FC03B42B86D035
:101EE00000F007020123013242F40022AFE7C02BC9
:101EF00044D1C6280AD13046FFF705FF0323020369
:101F000000F00F0002F470220130E3E7C7280BD184
:101F10003046FFF7F8FE431E0246DBB20E2B3FF6BB
:101F200066AF0023042193E700F0F803C02B06D12D
:101F300000F00F020323013242F4202287E7C82871
:101F40000DD13046FFF7DFFE00F0F00200F00F0089
:101F500005231032013040EA0232012178E7C92816
:101F60007FF445AF3046FFF7CEFE0523020300F0B5
:101F70000F0002F4702201300243EEE700F0F80394
:101F8000D02B7FF434AF00F007020523013242F476
:101F90000022E2E71FB503460846DA6C53680832B0
:101FA000190202921B0E0322019101A98DF80C2047
:101FB0008DF80D30FFF7CCFE05B05DF804FB08B5D9
:101FC000FFF7C5FE806C08BD08B5FFF7C0FEC06C0A
:101FD000C379023300EB830008BD0000000000005D
:101FE0002DE9F04D84B080460C4615460FF2580B93
:101FF000DBE900ABCDE900AB53EC112B51EC100B3E
:10200000FEF7FAFB06460F464FF0004020FA08F0B4
:10201000FEF788FB32463B46FEF7EEFB02460B46D8
:10202000CDE9022352465B46FEF776FE48B902AB85
:102030002946204693ED000B05F0DEFB04B0BDE819
:10204000F08D6B46F4E700BF0000C0FFFFFFDF41EB
:102050002DE9F04782B007460D4616461C46DDF8CE
:1020600028A0C868FEF770FB80468946F068FEF736
:102070006BFB02460B4640464946FEF7BDFBECB102
:1020800080468946E068FEF75FFB02460B46404605
:102090004946FEF7F9F9804621F00049DAF80C00CC
:1020A000FEF752FB02460B4640464946FEF7CEFC81
:1020B00010A3D3E90023FEF71BFE50B10B9B009346
:1020C000534632462946384605F07EFC02B0BDE84C
:1020D000F0877C69044B009340F24313034A0449A0
:1020E0003846A0470120F1E764AF0100B0AE01001F
:1020F00008AF01007B14AE47E17A943F0000000076
:102100002DE9F0472DED028B88B004460D461646AA
:102110009A46129F3B4608F083F9002840F0BE81A2
:10212000814695F80080B8F1090F11D0B8F1070F7A
:102130000ED0B8F1010F40F04E813078012840F008
:102140006081DAF80000FEF7FFFAC7E90001A7E1B5
:10215000B8F1070F20D0B8F1090F40F09B8030781C
:10216000072800F0AD80092840F0ED80336913F1B5
:10217000800F00F0FD8065696FF07F02039202938B
:10218000AD4B0193AD4B00936723AD4AAD4920465B
:10219000A8474FF0010983E12B69002B3DD133693A
:1021A000002B4AD196ED037ADFEDA77AB4EEE77AF9
:1021B000F1EE10FA51DD77EE677ADFEDA46AF4EE06
:1021C000E67AF1EE10FA4DDCB8F1070F00F0E58089
:1021D000DAF8006007F10804E868FEF7B5FA41ECA8
:1021E000180B3046FEF7B0FA41EC100B07AA214657
:1021F0000520B0EE481AF0EE681AFFF7F1FE0799D5
:10220000F9601F22052011F017FBFEF78BFA01F190
:102210000041FEF78BFDB86142E16569002203923F
:1022200002938B4B01938B4B00935B23844A85492C
:102230002046A8474FF0010932E165690022039268
:102240000293834B01937D4B00935C237C4A7D4931
:102250002046A8474FF0010922E1DFED7B7A77EEB7
:10226000C77AAAE7656900224FF07C53CDE90423C1
:1022700017EE100AFEF768FACDE90201764B0193DA
:10228000764B00935D236E4A75492046A8474FF070
:10229000010905E16669404603F050FE0546092044
:1022A00003F04CFE039002956E4B01936E4B00932E
:1022B0006023634A6D492046B0474FF00109EFE0C3
:1022C000336913F5004F0FD06569694A0392029391
:1022D000684B0193594B00936223594A5949204650
:1022E000A8474FF00109DBE096ED037ADFED627A53
:1022F000B4EEE77AF1EE10FA20DD77EE677ADFEDE3
:102300005F6AF4EEE67AF1EE10FA7FF75DAF656989
:1023100000225B4BCDE9042317EE100AFEF714FAF6
:10232000CDE90201574B01934C4B00936323444A80
:102330004B492046A8474FF00109B1E0DFED4E7A46
:1023400077EEC77ADBE7666903F0F8FD05460920FA
:1023500003F0F4FD03900295424B01934A4B009326
:102360006623374A41492046B0474FF0010997E0BC
:1023700096ED037ADFED457AB4EE677AF1EE10FA66
:102380003FF422AF6569424B009368232C4A4149D0
:102390002046A8474FF0010982E0E868FEF7D4F92B
:1023A00004460D46DAF80000FEF7CEF902460B4669
:1023B00020462946FEF720FA1DA3D3E90023FEF7A5
:1023C00045FB41EC100B07A907F1080005F0C4F923
:1023D000079BFB6064E06669404603F0AFFD05467D
:1023E000012003F0ABFD039002952B4B01931E4B94
:1023F00000938523124A1D492046B0474FF001093A
:102400004EE0666903F09AFD0546012003F096FD53
:1024100003900295204B01931B4B00938623084A9F
:1024200012492046B047C1463AE000BFAFF30080F2
:10243000140014001400243FACBA010010BA0100CB
:1024400034B901001CB20100000000386F120333E0
:102450000CBA01002CBA010068BA010074BA01007C
:1024600048BA01008CBA010078B301004CB30100F6
:102470000080FFFF98BA0100000080376F1283329E
:102480000000F03EA0BA010068B301000000803BEC
:10249000B4BA010008AF0100C8B201004FF0010951
:1024A000484608B0BDEC028BBDE8F08738B58368BC
:1024B00005699C697CB112F4000F06D02D680123D8
:1024C0008B401D4201D082F0C062044B134002F0E9
:1024D000B072A04738BD6FF05700FBE74000000620
:1024E000024A0260024A0260704700BFEC780100B5
:1024F000D078010010B50446044B0360044B036020
:10250000E42113F0ADFB204610BD00BFEC780100C4
:10251000D0780100574B1B7803B1704770B5144653
:1025200013F0C0F802464B0143EAD0634001801A21
:1025300063EB01039B0043EA9073800010EB020CF5
:1025400043EB0101C90047F6122200234FEACC00F9
:1025500041EA5C71FEF7B2FC05460E460023032BF0
:1025600028DC454A02EBC302117924FA01F212F089
:10257000010F20D0414A02EBC30C52F83340DCF883
:102580000420001B66EB0202322872F1000211DB0C
:102590003A4A42F83350CCF80460394A1068394A54
:1025A00052F820209A4208D037480DF065FE344B8F
:1025B00000221A6070BD0133D1E72F4A52F8330070
:1025C0000DF0A5F9012816D02D4B1B682F4A02EB00
:1025D000C30152F8332049680A43EBD02C4A02EB7E
:1025E000C30142F833504E600133254A1360042B77
:1025F000E0D1002313E0224B1A68244B03EBC20105
:1026000043F832504E60D5E7214A52F833201F4933
:1026100051F83310521A1F4941F823200133032B7C
:10262000F2DD00230CE0591C184A52F831201848FA
:1026300050F833000433121A164840F823200B4692
:10264000022BF0DD00230E4A13600CE0104A02EB6F
:10265000C30200200021C2E900010C4A02EBC302C0
:10266000C2E900010133032BF0DD024B01221A7095
:10267000A0E700BF50660020107901003053002011
:102680002C5E0020007901000877010070530020C3
:1026900050530020305E002070B52DED048B86B0C5
:1026A0000021544B186803F00BFE00231AE0524A35
:1026B00002EB8302D2ED007AF8EEE77A4F4A02EBA2
:1026C000830292ED007A77EEC77A4D4A02EB8302DD
:1026D000D2ED006A426802EB830287EEA67A82EDB1
:1026E000007A0133062BE2DD424B186804F01AF839
:1026F00060B900213F4B186803F0F8FD426892ED85
:10270000007AB0EE478A0123002607E03D480DF02D
:10271000B3FD06B0BDEC048B70BD0133032B0CDCA4
:1027200002EB8301D1ED007AF4EEC87AF1EE10FAF3
:10273000F3DDB0EE678A1E46EFE7DFED337AD2EDC8
:10274000018A68EEA78A92ED029A29EE279AD2EDC5
:10275000039A69EEA79A67EE277A17EE900AFDF7BB
:10276000F3FF04460D4619EE900AFDF7EDFFCDE9A3
:10277000040119EE100AFDF7E7FFCDE9020118EE9A
:10278000900AFDF7E1FFCDE9000122462B461F48E4
:102790000DF072FDDFED1E7AB4EEE78AF1EE10FA6D
:1027A00014DDF11C1B480DF067FD1B4C01220A21B2
:1027B00020460DF0CBF84FF22440002109F084FDB3
:1027C00000220A2120460DF0C1F8A2E713480DF0BF
:1027D00053FD114C01220A2120460DF0B7F84FF2AB
:1027E0002440002109F070FD00220A2120460DF04E
:1027F000ADF88EE7285E0020305E00205C79010095
:1028000040790100207701000000C84234770100C0
:102810003333333F68770100546A01008077010049
:102820002DE9F843202931D004460E4615461F46AF
:1028300003681B68984788BBD4F8AC80B8F1050FD3
:1028400035D8C8EBC80904EB890909F1040EAC4678
:10285000BCE80F00AEE80F009CE807008EE8070018
:10286000C9F8186008F10103C4F8AC30D4F8E030BE
:1028700003F12C0244F8226003F1320244F8227082
:102880000133C4F8E0300020BDE8F8830D4810F0B3
:10289000F0FC0D4810F0EDFC0120F5E70B4810F0BE
:1028A000E8FC31460A4810F0E4FC0120ECE7314630
:1028B000084810F0DEFC0621074810F0DAFC012081
:1028C000E2E700BF9C770100D0770100E8770100C4
:1028D000187801003C7801007078010010B588B0CC
:1028E000044601A805F062FA034B01AA1321204611
:1028F000FFF796FF08B010BD453A010010B588B04B
:10290000044601A807F0C0F8034B01AA162120468F
:10291000FFF786FF08B010BDC97B000010B588B076
:10292000044601A806F020FB034B01AA72212046B1
:10293000FFF776FF08B010BD413A010010B588B02E
:10294000044601A805F07AFB034B01AA06212046A4
:10295000FFF766FF08B010BD3D3A010070B592B0B8
:1029600010F0B6FC4FF4B01152480CF0B9FF4FF420
:10297000B01151480CF0B4FF00241CE04F4E06EBA0
:10298000C4054FF4803128460CF0AAFF4FF0E861EF
:1029900028460CF070FF04EB4403494901EB830126
:1029A0002A7901239340474A4A608B6056F83400E5
:1029B0000CF0D9FF0134032CE0DD43480DF034F86E
:1029C0000546424BD3E8AF3F13F0010F30D004A8C7
:1029D00005F074FE3E4C3F4B04AA09212046FFF748
:1029E0001FFF2046FFF77AFF0BA807F029FA3A4BA2
:1029F0000BAA19212046FFF713FF2046FFF77EFFA1
:102A00002046FFF78BFF2046FFF798FF334BD3E8B4
:102A1000AF3F13F0010F22D03148324B186003F062
:102A20009BFD31480DF028FC30480DF025FC3CE0C2
:102A300026480BF0D5F80028C9D025482C4B036058
:102A40002C4B03600023C0F8AC30C0F8E0302A4AB9
:102A50002A490EF09CFA1D4813F004F9B7E71F4805
:102A60000BF0BEF80028D7D01D4C0023039302932F
:102A700001934FF4A0430093214B154A2946204669
:102A80000FF07BFE1C4A1F4920460EF080FA1348C7
:102A900013F0E8F8C0E7FFF7FFFD1B4B00221A70A8
:102AA00040F23910002109F00FFC174B1B78002B66
:102AB000F1D1F5E738790100307901001079010092
:102AC0004C5E00201525000084790100405D002047
:102AD000445D0020557C0000397D0000785C0020BA
:102AE0007C5C0020285E0020847801009C78010036
:102AF000D0780100EC7801007C5E0020E124000029
:102B0000300300205F280100506600202DE9F04FBF
:102B100091B005920293134602F004020092C3F3AF
:102B2000C20310F00302019240F02A8280468A46D6
:102B30000133041D00284ED0B8F1000F05D0A4EBDE
:102B400008020432524500F21E82029A551E019A72
:102B500004920692039200264FF0FF3B0427B946E9
:102B6000B8F1000F01D0029A22605A1E0792002B82
:102B700040F35C81059B13F0020228D00120A4EBF6
:102B800008018B081AB1B1F5007F80F00282039929
:102B90000F2900F20182B8F1000F00F05F81DBB273
:102BA00001F140026A4402F8103C02F820BC0028FF
:102BB00000F0508163F07F0301F140026A4402F8A3
:102BC000103C049B01330493039B013303930434AF
:102BD000002140463DE001F0070A5444CAF1080ACA
:102BE000AAE7002634E0002632E0002630E008277D
:102BF000B9462DE0252B2BD10BF1010B0126042723
:102C0000B94625E0472BEED82A2B14D32A3BDBB25A
:102C10004FF0010C0CFA03F34FF6DA7C13EA0C0FB9
:102C200016D113F0625F40F0C18013F0010F40F045
:102C30008D8000260CE0252B03D10BF1FF3B0026F5
:102C400006E001D9002603E0202B01D0232BCCD1B4
:102C500015466A1C6B78002B00F01981002EC9D034
:102C60007A2BBED84C2BCDD34C3B2E2B62D80FF2F7
:102C7000080C5CF823F000BF512C0000352D00003B
:102C8000352D0000352D0000352D0000352D0000BC
:102C9000352D0000352D0000352D0000352D0000AC
:102CA000352D0000352D0000452D0000352D00008C
:102CB000352D0000352D0000352D0000352D00008C
:102CC000352D0000352D0000352D0000AD2D000004
:102CD000352D0000452D0000452D0000AD2D0000D4
:102CE000AD2D0000AD2D0000512C0000452D000041
:102CF000EF2B0000352D0000512C0000352D000079
:102D0000092E0000452D0000092E0000352D000081
:102D1000352D0000112E00003F2D0000452D000034
:102D2000352D0000352D0000452D0000352D00000B
:102D3000392D000000268BE70427B94688E70427D1
:102D4000B94685E72B786C2B24D000263C44013C07
:102D5000B4FBF7F407FB04F420B1231A4B445345AA
:102D600000F21481002958D1B9F1040F00F08780D6
:102D7000B9F1080F40F013811A9B073323F00703C2
:102D800003F108051A9593ED007B08B184ED007BF3
:102D900008345DE712F8023C6C2B03D000260427B0
:102DA000B946D3E700260827B946CFE72B784C2B46
:102DB0001AD01A9B073323F0070303F108061A966B
:102DC000D3E90067073424F0070440B1231A08331D
:102DD000534513D82B784C2B13D0C4E90067083423
:102DE00000260827B94633E71A9B073323F0070369
:102DF00003F108061A96D3E90067E3E76FF01B00BA
:102E0000BBE0C4E90067EAE700260427B9469DE76E
:102E1000314600260427B94698E780461A9B191DBB
:102E20001A911B680293079B154699E6624B029A1A
:102E30009A4204D3614B9A420AD3002300E0002354
:102E4000002B7FF497AE059B03F00202002096E66C
:102E50000123F5E7069B01330693B5E610B10AF1AD
:102E6000010AB1E6009B13B10AF1020AACE602982E
:102E7000FEF7DCFD0AEB000303F1020AA4E61A9B4D
:102E80001D1D1A951B6800B123600434E0E68046DE
:102E9000231AB3F5806F80F0858090B10022026024
:102EA0009B080370009B83B1069BC370049B88F84A
:102EB00002301BBB019DDDF80C90DDF810B0029FC5
:102EC0003DE05344A3F1080057E0069B4370EDE753
:102ED00001339842EED903F140026A4412F8101C03
:102EE00012F9102C002AF3DA01F07F01A4EB08029A
:102EF0000132524559D804F8011BE9E7019B0398B8
:102F0000E7E7009B43B305F140036B4413F8203C13
:102F100004F8013B019EA4EB0803334401335345FD
:102F200046D805F140036B4413F8103C04F8013B0C
:102F300032463946204613F008FA34440135A94593
:102F400019D9BBF1000FDCD005F140036B4413F934
:102F5000103C002BD5DAF1E705F140036B4413F880
:102F6000103C58F82370002248F823203846FEF71A
:102F70005DFD461CCFE7A4EB080011B0BDE8F08F63
:102F80006FF00D00F9E76FF01B00F6E76FF01B0024
:102F9000F3E76FF01500F0E76FF01500EDE76FF065
:102FA0001500EAE76FF01500E7E76FF01B00E4E7B4
:102FB0006FF01B00E1E700BFB469010000C0010031
:102FC0002DE9F04F97B000AF8346BA61FB60D7F8A8
:102FD0008030C3F3C0033B62396111B90DF0C4F80E
:102FE00038619BF80260B14636B1D7F8803013F0F3
:102FF000010F0DD1002300E000239BF803207A622B
:1030000042B1D7F8802012F0020F22D1002202E054
:103010000123F2E7002202B9EBB19BF80050AA00AD
:10302000BA60DBF804207A610BEB8505BA69F2B16E
:10303000002B40F00481B9F1000F00F00F81D7F8A8
:10304000803013F0040F40F00D810020F861064637
:10305000F9E00122DFE7BB691BB1FA68396958461C
:1030600098473C6920465C37BD46BDE8F08F3C6917
:10307000E3B94D4400233B6123E0044401350136AC
:103080004E451AD22A7800235BF822201946B869E7
:103090000DF07FF8BAF1000FEFD0D7F888309845DF
:1030A000EBD22AF8180008F10108E6E70026C7F875
:1030B0001C80B046D7F884A0E2E7C7F81080D7F8A4
:1030C0001C80D7F8803003F00503FB604FF0000A46
:1030D000A146C7F81CB09CE000253B6A7BB9002DD7
:1030E00079D0D7F8803013F0010F79D1FB68002B2D
:1030F0006FD10223A9EB030988E00125EDE75946CA
:1031000078690DF08CF80028E9D06C46002387F828
:103110002C30022387F82D308AB0694611F1100255
:1031200037D012251AB1042D01DDB14B4B610023BC
:1031300087F82830022387F829306ABB112D45DD36
:10314000122362B1042087F82C00002087F82D009C
:1031500087F82E00012087F82F00F86A08616FF3C6
:1031600000086FF341086FF382086FF3C50802216E
:1031700061F38818C3F30A0363F353286FF31F58EE
:10318000002341469B4800F05DFDA546A9F10209D8
:103190003CE06FF00045C5E72B46082D01DD78695E
:1031A00088610C2B01DDC1F81CB001F12003002067
:1031B00009E000F1300C07F1280EF4441CF830CC83
:1031C00003F801CB01300128F3D9B7E76FF01B03F7
:1031D000B7E701238EE7D7F8803013F0020F15D040
:1031E000002322461946B8690CF0D3FFD7F8843083
:1031F00053B13B69D7F88820934205D2D7F8842091
:1032000022F8130001333B61013881440AF1010ABD
:1032100035467B6A9A4510D22E4616F802BB6B786B
:10322000FA6952F82340744B9C42FFF455AF734B3C
:103230009C42FFF462AF00254FE74C4612E707F1CE
:1032400044000023FB6118B14A46294613F07DF87B
:103250004D444FF00008C7F804901EE00020F861CC
:103260000646F0E7FE6107F134000026EBE7002593
:103270003B6A33BB002D3BD0D7F8803013F0010FF1
:1032800026D0731C06F1300207F12801561806F803
:10329000149CDEB208F1010825467B6A984549D2A4
:1032A0002C4614F802AB95F801905BF82930524A8D
:1032B0009342DCD3514A934201D30025D8E701253C
:1032C000D6E7514678690CF0AAFF0028D2D0E1E792
:1032D000D7F8803013F0040FDCD0FA69531C303279
:1032E00007F128010A4402F8249CDBB2FB61D1E714
:1032F000D7F8803013F0020F09D0731C06F13002AA
:1033000007F12801561806F8149CDEB2C2E7F969E5
:103310004B1C01F1300207F12800024402F824ACF2
:103320008A1CD2B2FA6107F1580252FA83F303F809
:10333000249CAFE7D7F804909BF8003087F854300E
:103340009BF80130334487F85530D7F8803013F0BC
:10335000020F0ED1FB69C3F3470387F85730D7F844
:10336000803013F0010F06D113F0040F3AD100237F
:1033700002E00023F1E7002387F85630DBF8000075
:103380003863786DCBF80000D7F80CA05246B968C6
:103390005846BB699847041EFFF664AE386BCBF8FD
:1033A00000005246F96907F13400BB6998470028CC
:1033B0005DDB04EB0008B9684944786A01EB400121
:1033C00052463869411A2846BB699847041EFFF6E1
:1033D00049AE08EB04054FF00008C7F824B0B34627
:1033E000BC6922E0FB69C7E74FF000090AE000BFB3
:1033F0006C88010088730100B469010000C00100FD
:103400004FF000095246012107F12C00A047002887
:103410002FDB05444B463246514620460CF0B9FEA0
:10342000002828DB054408F10108D84518D208F126
:10343000300307F12802134413F8143C87F82C30AA
:103440007A6A52F82360D7F88430002BCCD0D7F8B2
:1034500088309845D4D2D7F8843033F81890D1E723
:10346000FA6800210846BB6998472C46FAE50446ED
:10347000F8E50446F6E50446F4E500BF014B1860A4
:10348000704700BFD000002080B505460E461746A5
:10349000984608F07DFF034613F060F90446DFF814
:1034A000189049F80030424639463046A84754F84B
:1034B000090001F021FC00BF080000002DE9F043E5
:1034C00083B0044608461546A38B13F0080F05D1B8
:1034D00003F0070600230093019354E0012909D06B
:1034E00043F02003A38385F31188BFF36F8F03B0EC
:1034F000BDE8F08343F01003A383F4E720460DF00A
:10350000F2F942E0D4F818904A46694620460DF098
:1035100003FA4FF00008A38B03F00707B74269D006
:10352000A268002A66D0012243F00803A38385F332
:103530001188BFF36F8F002A64D1009B2BB14B46DB
:103540003A46694620460DF060FAB8F1000F02D005
:1035500034492046C047EFF31185202383F31288B6
:10356000BFF36F8FA38B23F00803A383A38B13F008
:10357000100F4DD023F01003A3830120A68B06F07B
:1035800007060028AFD00228B8D00028ABD00138F9
:1035900004282BD801A353F820F000BF0535000004
:1035A000ED350000B1350000C5350000D93500000B
:1035B0002369D3F80080062120460DF06AF94FF008
:1035C0000009A8E72369D3F80480042120460DF000
:1035D00060F94FF000099EE72369D3F808800521C0
:1035E00020460DF056F94FF0000994E74FF000081F
:1035F000C14690E7009A0AB1002295E7B8F1000FA2
:1036000092D1B3E74A46394620460DF04AF994E78D
:1036100013F0200F04D023F02003A3830220ADE792
:103620000020ABE7390A010038B505460B4C00E035
:1036300010340B4B9C420FD263685B79002BF7D0A0
:10364000294620460DF0C2FA0028F1D023681B68F5
:10365000294620469847EBE738BD00BFE0730100DC
:10366000F073010070B506460D46084C04E02A468A
:103670003146204698471034054B9C4204D22368BB
:103680009B69002BF3D1F6E770BD00BFE07301002A
:10369000F07301002DE9F041074605460AE007EA0C
:1036A0000807144B03EB06135B68042219682046D5
:1036B0000DF0EEFAD5B195FAA5F6B6FA86F60D4CF0
:1036C00004EB06140123B3406FEA030825EA03055F
:1036D000237B002BEED03301064AD3581B69002B05
:1036E000DDD0204698470028E4D1D8E73846BDE829
:1036F000F08100BFE07301002DE9F04180460F46E4
:103700001D4BD3E8EF5F6A1CC3E8E12F0029F8D115
:103710006DBB1A4C002607E0636804221968204636
:103720000DF0B6FA01361034154B9C4211D2237BB2
:10373000002BF7D020460DF03DFA23681B69002BC3
:10374000EAD0204698470028E6D00123B3401D4325
:10375000E8E7B8F1000F0BD055B12846FFF79AFF04
:103760000546002FF8D00A200DF036FAF4E70025C0
:103770002846BDE8F08100BF945E0020E0730100A0
:10378000F073010008B5064B186018B1054B1B68B3
:10379000092B00DC08BD044808F018F9FAE700BF5F
:1037A000885E0020905E0020F802002008B50248E4
:1037B00008F00CF908BD00BFF802002030B589B050
:1037C00000220F490F4811F07CFF0F4D002200230B
:1037D000CDE90623002404940E230393029401945C
:1037E00000940A4B4FF440720949284611F080FDBD
:1037F0000849284608F064F9204609B030BD00BFEA
:10380000AD370000A0580020905300206D3B000011
:103810005866002024890100014B53F820007047AE
:103820004089010048B108B5054A1060054B196090
:10383000084600F0FBFC002008BD6FF01500704743
:10384000D4000020845E002008B5054B1B781BB116
:10385000034B01221A7008BD024808F0B7F8F7E7D9
:1038600051660020F802002008B50C4BD3E8EF1F8A
:103870000131C3E8E21F002AF8D130B9084811F03D
:103880002CFF084808F0A2F808BD074BD3E8EF1F4B
:103890000139C3E8E21F002AF0D0F7E78C5E002070
:1038A000A0580020F8020020905E0020044B002069
:1038B0000146D3E8EF0FC3E8E21F002AF9D17047B1
:1038C0008C5E002038B5FFF7F1FF0546094C00E09B
:1038D0001034094B9C420BD263685B79002BF7D004
:1038E00023685B68002BF3D0294620469847EFE712
:1038F00038BD00BFE0730100F0730100034B18688E
:103900000028D4BF00200120704700BF8C5E00203B
:1039100010B5044C044920460CF016FE034B1C6005
:1039200010BD00BF540200202C890100805E0020E1
:1039300008B500230C4A13700C4A13600C4A13603C
:103940000C490D48FFF76EFFFFF7E2FF0B4A06E058
:103950000A4BD31A1B11013351680B711032084BFB
:103960009A42F5D308BD00BF526600208C5E00204D
:10397000905E002040420F00D10B0100E073010077
:10398000F073010008B5014601480DF053F908BD78
:103990005402002008B502480CF0B9FE08BD00BF73
:1039A0005402002008B50146024B18680DF048F992
:1039B00008BD00BF805E002008B502480DF044F944
:1039C00008BD00BF5402002010B582B000220023C1
:1039D000CDE90023284B187808B902B010BD68461D
:1039E0000DF04AF9044660B1FFF71EFE2046FFF7CE
:1039F000D9FF224BD3E8EF1F0139C3E8E21F002AA9
:103A0000F8D1FFF77BFF58B91D4A1368516813F5C9
:103A10007A7341F1000113605160FFF7CDFFDCE7DD
:103A200011F040FE02464B0143EAD0634001801A88
:103A300063EB01039B0043EA9073800010EB020CE0
:103A400043EB0101C90047F6122200234FEACC00E4
:103A500041EA5C71FDF732FA094A13685268C01AEC
:103A600061EB020140F2E933984271F10001CBD3DE
:103A7000FFF728FFC8E700BF51660020905E0020D6
:103A8000985800200F4B1B7803B1704710B50021E8
:103A90000120FFF731FE0C4C00E010340B4B9C4230
:103AA00008D263685B79002BF7D023689B682046B7
:103AB0009847F2E7FFF788FF0028FBD1014B01226E
:103AC0001A7010BD52660020E0730100F07301000F
:103AD00010B582B0184BD3E8EF2F511CC3E8E01F9C
:103AE0000028F8D1154B1B7863B9154B1B68B3B18F
:103AF000BAB1092A13D1134811F0EFFD124807F0AB
:103B000065FF0CE0EFF31184202383F31288BFF3E9
:103B10006F8FFFF759FF84F31188BFF36F8F02B0E7
:103B200010BD00220023CDE9002347F61222002316
:103B3000044808F06DFFF2E7905E00205266002016
:103B4000885E0020A0580020F802002010B504462E
:103B5000044B1B689847A060214603480DF090F87D
:103B600010BD00BFD4000020540200202DE9F04118
:103B700000210846FFF7C0FD804650B140F21B66A9
:103B8000002712F0EBFD154B1858FFF7FBFD002541
:103B900015E04FF0FF364FF0FF37F2E74046FFF7F2
:103BA00079FD804670B94FF0FF364FF0FF3709E0DE
:103BB0002C4632463B460A4807F04CFF2546B8F1F2
:103BC000000FEBD1FFF700FF04460028F6D1002DCF
:103BD000EED000210846FFF745FDEAE708000000A7
:103BE000F80200200248034BC01AC008704700BF0B
:103BF000E07301008073010010B50C46FFF7F2FF7F
:103C0000A04203D9024B53F8340010BD0020FCE75A
:103C10008073010000B589B00592069300230793D5
:103C200062B1074A0C9B02930B9B01930A9B009382
:103C300005ABFFF7C5F909B05DF804FB0022F1E719
:103C4000A70C01002DE9F04F8BB004AF05461E46CE
:103C50008846C1F34A24002C00F089809146002256
:103C6000FA603A617A6104230293FB1801930A23F4
:103C7000009307F10C0321464846FFF7A1F9B0F580
:103C8000006F58D3D9F804106D4600233B7302230C
:103C90007B738AB004AC14F1100217D012201AB151
:103CA000042801DD3B4B636100233B7002237B70E2
:103CB000CAB10346082800DDA1610C2B02DD40F2E9
:103CC000FF73E36104F1200300210AE06FF000407C
:103CD000E5E701F118063E4416F8186C03F8016B8D
:103CE00001310129F5D9112822DD122342B1042125
:103CF000397300217973B9730121F973F868206170
:103D000000216FF300016FF341016FF382016FF344
:103D1000C501022060F38811C3F30A0363F3532142
:103D20000023C1F313011C480DF033F8AD462DE01C
:103D30006FF01B03DAE760F35328C0F30A0A0AEBBB
:103D40001850173020F007008008FFF71BFE83464D
:103D5000B0B104230293FB1801930A230093534646
:103D600000F1100221464846FFF754FF08E004EB3B
:103D70001154173424F00704A008FFF703FE83460C
:103D800033464246294658460CF0A6FF1C37BD462E
:103D9000BDE8F08F60890100A87301002DE9F04FA4
:103DA00085B080460D4617461E46DDF838B0DDF872
:103DB0004090B9F1000F41D0119B039300934B4603
:103DC0000F9A10210020FEF7A1FEB0F5006F2DD252
:103DD00082460BEB0003173323F0070300246FF335
:103DE00000046FF341046FF3820468F3C50467F3C2
:103DF000881460F353246BF31F549808FFF7C2FD37
:103E0000074650B11030B9F1000F06D0119B009356
:103E10004B460F9A5146FEF779FE33462246294615
:103E200038460CF059FF05B0BDE8F08F40F2FF7343
:103E3000034A022103480CF0A1FFF4E70020C7E782
:103E4000A0890100A8730100406820B1034BC01A8B
:103E500040F3CF0070474FF0FF3070478073010090
:103E60000EB400B582B0014603AB53F8042B0193A6
:103E7000034801F0A7FA02B05DF804EB03B0704705
:103E8000C90D010010B584B011F0440F05D01A4BD4
:103E90001B6833B9002004B010BD1849FFF7E0FFDC
:103EA000F9E717490968B2FBF1F2B2FBF3FC03FB37
:103EB0001C224FF47A7E0EFB02F2B2FBF3F403FBFA
:103EC00014210EFB01F1B1FBF3F10E4AA2FB0C32FF
:103ED000D20A4FF4616303FB12CC0B4BA3FB0CE340
:103EE0005B0902910194C3EB0311ACEB81010091DA
:103EF0000649FFF7B5FFCEE79C5E0020D889010098
:103F0000985E0020C5B3A29189888888E489010061
:103F100061B108B52AB1064A52F8232012B9054A00
:103F200000E0044A0449FFF79BFF08BD704700BF4B
:103F3000888A0100008A0100088A01002DE9F04109
:103F400005461746069EDDF81C8081B900242EB177
:103F5000324611492846FFF783FF0444B8F1000FA9
:103F600014D06FB1099B042B13D00C4909E00C4B02
:103F7000099A53F822200B49FFF772FF0446E6E73F
:103F8000064942462846FFF76BFF04442046BDE839
:103F9000F0810549F5E700BF208A0100108A010081
:103FA0009C8A0100188A01000C8A01002DE9F04F5B
:103FB00087B005460C46049205939DF84C7001F0BD
:103FC000020B01F0010AC1F3C00801F480790CF082
:103FD0005DFE18B3024616492846FFF741FF064624
:103FE000BBF1000F1CD13A46514628460CF013FF96
:103FF000B9F1000F01D0002311930397129B029394
:10400000119B0193109B00930023049A414628467C
:10401000FFF794FF304407B0BDE8F08F0026DFE7DC
:10402000059A21462846FFF72DFF0644DBE700BF2F
:10403000248A010011F0100F0BD108B511F0200FE8
:1040400003D00449FFF70CFF08BD0349FFF708FF41
:10405000FAE77047688B0100288A01002DE9F041DA
:1040600005460F46164698460699FFF7E3FF0024DB
:10407000444505DA24492846FFF7F2FE0134F7E704
:10408000002409E020492846FFF7EAFE0BE01F491B
:104090002846FFF7E5FE01340F2C0CDC002C02DD76
:1040A00014F0070FEED0B442F1D23A5D1849284619
:1040B000FFF7D6FEEFE717492846FFF7D1FE0024A9
:1040C00009E011492846FFF7CBFE0BE012492846CC
:1040D000FFF7C6FE01340F2C13DC002C02DD14F0B8
:1040E000070FEED0B44207D23A5D0C4B9B5C13F045
:1040F000970FEBD12E22E9E703492846FFF7B0FEE0
:10410000E8E7BDE8F08100BF1C8A0100348A0100A5
:104110002C8A0100388A01003C8A0100F1BE0100AE
:104120002DE9F04184B004469DF82C500C9F0E9E62
:1041300095B9012B1ED019484FF0000827B13B4616
:10414000224617490CF03BF8C6B905BB20460CF0D7
:1041500024FE04B0BDE8F08103950A980290019313
:1041600000920B4600220F992046FFF71FFF804662
:104170000C48E3E70B484FF00008DFE70F9B009384
:10418000434632460D9920460CF05DFEDDE72A4697
:104190000F9920460CF04BFED8E700BFF90D010047
:1041A000C5530000C90D01002DE9F04383B0064658
:1041B000056842F20F738B4228BF0B46184A05214F
:1041C00068460AF073F804467368D3F804900B2726
:1041D000DFF8548005E04A4639464046A8473F1A72
:1041E0008044002FF7D17368D3F804806F4605E050
:1041F000424621463846A847241A0744002CF7D1E6
:1042000073685F681B24074E05E03A462146304636
:10421000A847241A0644002CF7D103B0BDE8F08368
:10422000708C0100408A01005C8A0100074B01226A
:104230001A6004E04008054A13685B001360044BF1
:104240009842F7D8034B1860704700BF985E002073
:1042500040420F009C5E002070B506460D460024CB
:1042600005E0315D044883685B6898470134AC42DF
:10427000F7D3284670BD00BF946A0100014B03606C
:1042800000207047048B010008B503480BF0F4FFD1
:1042900002480BF0F1FF08BD048B01003C8B0100CC
:1042A00008B50348034A121A00210CF05CFE08BD51
:1042B000300300205866002008B50648064A121A46
:1042C00006490CF054FE0648064A121A06490CF03C
:1042D0004EFE08BD400000202803002000C0010061
:1042E000400000204000002000C001002DE9F04FF8
:1042F00087B000AF8146D0F800E0D0F804C08568F0
:104300006E468AB06B4613F1100200F087801421CC
:104310008AB10846042903DDDFF83C82C3F8148023
:10432000082801DDC3F818E00C2801DDC3F81CC023
:10433000102800DD1D62132973DD14253AB1052113
:10434000397500217975B975F97578691861002199
:104350006FF300016FF341016FF382016FF3C50149
:10436000012363F38811C5F30A0565F353216FF345
:104370001F5100237348FFF765FCB546D9F80CE0E0
:10438000D9F810C0D9F814506E468AB06B4613F1B4
:10439000100249D014218AB10846042903DDDFF850
:1043A000BC81C3F81480082801DDC3F818E00C288C
:1043B00001DDC3F81CC0102800DD1D62132936DDA5
:1043C00014253AB10521397500217975B975F9754A
:1043D0007869186100216FF300016FF341016FF3F9
:1043E00082016FF3C5014FF0010868F38811C5F32E
:1043F0000A0565F353216FF31F51524D00232846E0
:10440000FFF720FCB546D9F81C304F4A41462846F4
:104410000CF0B4FC4FF0000B5D4633E06FF0004150
:1044200076E76FF01B0589E76FF00041B3E76FF0A7
:104430001B05C6E76FF0004046E027286BDD28210A
:104440003AB10A20387500207875B875F875786922
:1044500018616FF300046FF341046FF382046FF38C
:10446000C504012363F38814C1F30A0161F35324E3
:104470006FF31F54002321463248FFF7E3FBD7F8C0
:104480000CD004350F2D49D805F1080359F823A0A5
:1044900005F1010805F1090359F82330BB6005F166
:1044A000020C05F10A0359F823307B6005F1030E75
:1044B00005F10B0359F823B0C7F80CD08EB06B464A
:1044C00013F11002B6D02820002AB6D001460428E5
:1044D00001DD1E4E5E61082900DD9D610C2901DDB4
:1044E000C3F81CA0102901DDC3F82080142901DDC8
:1044F000BE685E62182901DDC3F828C01C2901DDF1
:104500007E68DE62202901DDC3F830E0242994DDD5
:10451000C3F834B091E76FF01B0191E7D9F8603030
:10452000084C0B4A012120460CF028FCD9F8183021
:10453000084A012120460CF021FC1C37BD46BDE88D
:10454000F08F00BFC8730100CC8B0100DC8B010031
:10455000208C0100308C01006C8B01009C8B0100D1
:1045600038B504460D4611B10846FFF7BFFE012CD1
:1045700004D02946204606F0FFFE38BDEFF3058340
:10458000103B034A012103480CF0F8FBF1E700BFA0
:10459000608C0100C873010030BFFFF7FDBF00BF92
:1045A00038B50446054D2A46054911F0CEFE054AA8
:1045B0000021601911F0D6FE38BD00BF00000000D8
:1045C000347401000800000070B50646064D074B24
:1045D0001D444C1B2046FFF7E3FF083CC6F8B440DF
:1045E00005F1080070BD00BF0000000008000000D9
:1045F000054B9A699B689A4204D0044A536843F079
:1046000080535360704700BFB05F002000ED00E0B2
:1046100081690D4B5A6942F480725A61BFF34F8F22
:10462000BFF36F8F31F8021C5A6922F480725A610D
:10463000BFF34F8FBFF36F8F4DF60273994201D0D6
:10464000002070470120704700ED00E04FF0000CA3
:1046500083F800C002F07F4CBCF17F4F14D102F010
:104660000C0CBCF1080F04D012F0080F09D008465A
:10467000704708B5054A012105480CF075FB00207C
:1046800008BD01221A70704700207047748C010029
:10469000C873010008B5314A012131480CF064FBB0
:1046A000304B9B6A13F0007F26D11D202D4B9B6A57
:1046B00013F0807F27D12B4B9B6A13F4801F29D1E5
:1046C000284B9B6A13F4002F2BD1264B9B6A13F4C3
:1046D000802F2DD1234B9B6A13F4003F2FD1214B08
:1046E0009B6A13F4803F31D11E4A936A6FEA0343F9
:1046F0006FEA1343936208BD1B4A012118480CF06E
:1047000033FB1E20D2E7194A012115480CF02CFB7F
:104710001F20D0E7164A012111480CF025FB02208A
:10472000CEE7144A01210E480CF01EFB2120CCE7F5
:10473000114A01210A480CF017FB2220CAE70F4A50
:10474000012107480CF010FB2320C8E70C4A012187
:1047500003480CF009FB2420C6E700BFA08C010031
:10476000C873010000ED00E0B88C0100CC8C0100A2
:10477000E88C0100148D0100348D01005C8D010076
:10478000788D010008B500230B70034A012103480E
:104790000CF0EAFA08BD00BFA48D0100C873010047
:1047A00090B583B000AF0F2923DC2F4C10390023C4
:1047B0003B7102237B718AB0EC461CF110021AD0C7
:1047C000122022B1042802DD284BCCF8143000233B
:1047D0003B7002237B70E2B10346082801DDCCF870
:1047E00018400C2B01DDCCF81C100CF1200300212B
:1047F0000DE01F4CDAE76FF00040E2E701F108043A
:1048000004EB070E1EF808EC03F801EB0131012957
:10481000F4D9112824DD12234AB104213971002171
:104820007971B9710121F9717868CCF81000002113
:104830006FF300016FF341016FF382016FF3C50164
:10484000012060F38811C3F30A0363F353216FF36C
:104850001F5100230748FFF7F5F90C37BD4690BDFF
:104860006FF01B03D8E700BFC88D0100FC8D01006D
:10487000E08D0100C8730100F8B505460F461446E7
:10488000394A012139480CF06FFA394B9B6A13F011
:10489000100F31D11026364B9B6A13F0080F32D11E
:1048A000334B9B6A13F0020F34D1314B9B6A13F0E8
:1048B000010F4BD12E4B9B6A13F0200F4DD12C4B87
:1048C0009B6A13F0100F01D1294B9B6A284B9B6AFE
:1048D00013F0200F04D0264A536A23F40053536286
:1048E000234A936A43F0FF039362012128460CF0A8
:1048F00055FB20703046F8BD1E4A01211B480CF0C4
:1049000033FA1126C7E71C4A012118480CF02CFA8B
:104910001226C5E7194A012114480CF025FA144A59
:10492000536B926A12F0800F01D11326BDE7144A2F
:1049300001210E480CF022FA37B10D4A936A23F098
:10494000800393621326B0E71326AEE70D4A0121D8
:1049500006480CF009FA1426ACE70B4A012103487B
:104960000CF002FA1526AAE7108E0100C8730100A8
:1049700000ED00E0288E01005C8E0100708E0100C9
:10498000888E0100A08E0100C08E0100F8B505469A
:104990000F461446374A012137480CF0E5F9374BEA
:1049A0009B6A13F4805F25D11626344B9B6A13F45F
:1049B000006F26D1314B9B6A13F4007F28D12F4B17
:1049C0009B6A13F4806F3FD12C4B9B6A13F4807F5A
:1049D00041D12A4B9B6A13F4005F43D1274A936A63
:1049E00043F47F439362012128460CF0D7FA2070EC
:1049F0003046F8BD224A01211F480CF0B5F91726B0
:104A0000D3E7204A01211C480CF0AEF91826D1E763
:104A10001D4A012118480CF0A7F9184A936B926AB5
:104A200012F4004F01D11926C9E7184A0121124892
:104A30000CF0A4F937B1114A936A23F4004393624E
:104A40001926BCE71926BAE7114A01210A480CF0D9
:104A50008BF91A26B8E70F4A012107480CF084F9B0
:104A60001B26BBE70C4A012103480CF07DF91C26EC
:104A7000B4E700BFF08E0100C873010000ED00E054
:104A8000088F01005C8E01001C8F0100388F01002F
:104A9000508F01006C8F0100C08E010070B506467A
:104AA0000D462B4A01212B480CF05EF900232B7098
:104AB000294BDC6A14F002040AD1274BDB6A002B75
:104AC0000DDB254BDC6A14F080440ED1204670BD0E
:104AD000224A01211F480CF047F90024F6E7204A3A
:104AE00001211C480CF040F9F0E71E4A0121194849
:104AF0000CF03AF93046FFF78BFD98B9164B9B6ADC
:104B000013F0FF0F16D1144B9C6A14F47F4418D194
:104B1000114B9B6AB3F5803FD8D33046FFF7BAFDFF
:104B20000446D3E73368104A01210A480CF026F9FD
:104B30003468CBE72A4601213046FFF79DFE044644
:104B4000C4E72A4601213046FFF720FF0446BDE7AF
:104B5000848F0100C873010000ED00E09C8F01000C
:104B6000C08F0100D08F0100F08F010030B59DB0E3
:104B70001A4B5C68C4F30804002383F31188BFF365
:104B80006F8F0DF16E03FFF761FD05460DF16F02AA
:104B900021460CF005FA9DF86F300BB11DB030BD09
:104BA00004466822294601A811F0CFFB9DF86E301B
:104BB0004BB1089BC3F308025AB96FEA53236FEA5B
:104BC0004323089305E0089B23F4FF7323F00103BC
:104BD000089301A92046FFF7C3FCDFE700ED00E0E2
:104BE000064B5A6942F010025A615A6942F48062D7
:104BF0005A615A6922F008025A61704700ED00E0DC
:104C0000EFF30880EFF3098101B57246FFF7AEFFBD
:104C100001BD00BF002080F31488BFF36F8F002018
:104C200080F30A8880F30B88104880F308880020FE
:104C30000F49087005F0D0FD00200E490860BFF351
:104C40004F8F00F02FF8202080F311880A484FF48E
:104C50000061401880F30988EFF3148002210843B3
:104C600080F31488BFF36F8F0CF0D5F99892002071
:104C70005666002094ED00E058690020084BD3F8F8
:104C80009000C0F30720002306E0054AC2F89830E0
:104C90000021C2F8A01001338342F6DB704700BF49
:104CA00000ED00E010B572B6002484F31388FFF71E
:104CB000E5FF234608E003F120010E4A4FF0FF30E4
:104CC00042F821000133DBB20F2BF4D9002308E0B6
:104CD00003F16001074A4FF0FF3042F82100013331
:104CE000DBB20F2BF4D962B6BFF34F8FBFF36F8FD8
:104CF00010BD00BF00E100E008B50A4B9B6883428D
:104D000002D007F04BFB08BDEFF30583002BF8D072
:104D1000054B5A6842F080525A605A6A22F40042A7
:104D20005A62EEE7B05F002000ED00E025498A6896
:104D300082F801E14FF030001044EFF3098C80E875
:104D4000F01F1EF0100F03D102F1C00080EC108A9A
:104D5000202080F31288BFF36F8F1B4F4FF0006647
:104D60008A698A603E60D2F8B400184C206092F9DB
:104D700001E1D2F8B8000023C2F8B83080F31188FE
:104D80001EF0100F03D00023E1EE103A03E002F111
:104D9000C00090EC108AEFF3148323F0040383F334
:104DA0001488BFF36F8F02F1300090E8F01F8CF38E
:104DB000098802F1000004B50CF048F9BDE8044090
:104DC00070470000B05F002004ED00E0C85E0020E6
:104DD0001EF0040F0CBFEFF30880EFF30980816928
:104DE00011F8021C0229FFD001B572460CF0C3F87D
:104DF00001BD00BF002807DB00F01F0240090123AE
:104E00009340024A42F82030704700BF00E100E0C2
:104E100000280CDB00F01F024009012393402030E2
:104E2000034A42F82030BFF34F8FBFF36F8F7047B4
:104E300000E100E0002808DB4901C9B200F1604050
:104E400000F5614080F80013704700F00F00490141
:104E5000C9B2014B1954704714ED00E04209054BEB
:104E600053F8222000F01F00012303FA00F0104045
:104E7000704700BF00E100E00C4BD3F8882022F41B
:104E80007002C3F88820D3F8882042F4A002C3F847
:104E9000882003F500734FF040425A63BFF34F8FF1
:104EA000BFF36F8F0023E1EE103A704700ED00E092
:104EB000044B23F07F03044A9360BFF34F8FBFF38B
:104EC0006F8F70470000000000ED00E010B4A2F109
:104ED0002004114942F8081C21F0010142F8081C85
:104EE00042F8203C019B42F81C3C029B42F8183CD3
:104EF000039B42F8143C4FF0807342F8043C046575
:104F00000023C0F8B830C0F80031FD2380F801312B
:104F10005DF8044B704700BF89340000124B9B685A
:104F200083421BD1EFF30583DBB9EFF3118220231A
:104F300083F31288BFF36F8F037B23F002030373A5
:104F4000EFF3148323F0040383F31488BFF36F8F0C
:104F500082F31188BFF36F8F002070476FF0150048
:104F600070476FF015007047B05F002008B5044629
:104F70000E4615460CF05CF80C4B9C60D4F8B4203F
:104F80000B4B1A60D4F8A43083F30B882C4686F3BD
:104F900009880020034B9847204600210022002367
:104FA000014C20475F10010089340000B05F0020F1
:104FB000C85E0020014B10221A61704700ED00E02E
:104FC000002206E003F00F030949194420230B7661
:104FD0000132B2F5877F0ADC13B2002BF2DB03F15A
:104FE000604303F56143202183F80013F0E7704725
:104FF000FCEC00E008B5EFF30583103B044A02EB3C
:10500000C301496852F833008847FFF7F1FA08BD39
:10501000B46A010010B584B00A4C23460A4A012143
:105020000A480CF015F90023019302930393084BEF
:105030000193E41A0294012101A80CF00DF904B0C7
:1050400010BD00BF00F00220000000200C90010005
:1050500030030020024B034AC3F8C020704700BF52
:1050600000ED00E0AAFF4400034BC3F89800C3F82A
:105070009C10C3F8A020704700ED00E00E4BC3F871
:105080009800C3F89800D3F89C000A7A60F30402F1
:105090000A72D3F8A020C2F34202087A62F34710E2
:1050A0000872D3F89C2022F01F020A60D3F8A030C7
:1050B00023F01F03CB60704700ED00E070B505469C
:1050C0000E46002400E00134A6421EDD04EB44033A
:1050D0009A0005EB830359680029F4D0A8580CF016
:1050E00011F804EB84030B4A42F8230010F1160F69
:1050F0000CD0094B1B78984209DA04EB840302EBCD
:1051000083010431FFF7BAFFDDE7002070BD6FF0C7
:105110001500FBE7CC5E00205366002010B5044666
:105120000A4BD3F89030C3F30723013B984203D8CE
:105130000BF0C2FF204610BD0346054A0121054879
:105140000BF01CFE6FF01500F5E700BF00ED00E06E
:105150001C900100C07301002DE9F04F87B081461B
:10516000009101931446002648E03346614A01212C
:1051700061480BF003FE6FF0150407E03B465F4A01
:1051800001215D480BF0FAFD6FF01504204607B0D1
:10519000BDE8F08FD84564D12946C0B20BF0C3FFFB
:1051A0002BE0574AC2F89870D2F89C3003F01F03E6
:1051B00021F01F010B43C2F89C302946E0B20BF0EE
:1051C000B2FF044610F1160FE0D0013415E0013BA8
:1051D0004B49C1F89870D1F8A02002F01F0223F0CB
:1051E0001F031343C1F8A0302946E0B20BF09BFF28
:1051F000044610F1160FC9D001340136009B9E42BF
:10520000C4DA06EB46054FEA850A09EB85056F68A7
:10521000002FF2D0019B23B128460BF061FF00283C
:10522000A3D0394659F80A000BF06CFF074610F17D
:10523000160FA3D08442A1DD314BC3F89800D3F8F8
:105240009C2022F01F02C3F89800D3F8A03043F04E
:105250001F0859F80A306968194401F1FF3B93426D
:1052600098D093429DD0D845B1D0013B2449C1F894
:105270009870D1F8A02002F01F0223F01F031343FF
:10528000C1F8A0302946E0B20BF04DFF044610F102
:10529000160F3FF47BAF0130194BC3F89870D3F869
:1052A0009C109DF8102061F304028DF81020D3F8B3
:1052B000A030C3F34203D2B263F347128DF810203B
:1052C00059F80A306A681344029323F01F03A8EBCD
:1052D0000B084344013B23F01F03059302A9C0B20E
:1052E000FFF71CFF044610F1160F3FF44FAF0134D7
:1052F00083E700BF44900100C07301006890010083
:1053000000ED00E010B5034C01232278FFF724FFE5
:10531000207010BD53660020044B0522C3F8942072
:10532000BFF34F8FBFF36F8F704700BF00ED00E0FA
:10533000BFF35F8F024B0022C3F89420704700BF79
:1053400000ED00E038B51C4B1D681C4BD3F89030C5
:10535000C3F307239D422BD8FFF7EAFFFFF77AFE3E
:10536000002407E0144B596801EB041120460BF0B0
:10537000A3FE0134A542F5D8114805700BF0F2FEEA
:1053800010F1160F13D00E4B1A780C4BD3F8903047
:10539000C3F307239A4207DA084BC3F89820002189
:1053A000C3F8A0100132F0E7FFF7B6FF002038BDC8
:1053B0004FF0FF30FBE700BF8C90010000ED00E0F4
:1053C0005366002030B587B00D4611460024009486
:1053D0000194029403940494059402228DF802200F
:1053E000044A0192049005951A46684609F024F88B
:1053F00007B030BD6712010008B5024B1B68984723
:10540000002008BDE05E0020034B1860034A93783B
:1054100043F0020393707047E05E0020E00000203C
:1054200008B505480AF028FF002383F31188BFF36D
:105430006F8F0423184602DFC890010008B54FF0B3
:10544000FF324FF0FF3302480BF018FF08BD00BFDA
:10545000F000002008B5064921F00701C1F1005213
:1054600002F53C3203480AF0F3FD002008BD00BFFE
:105470009F920020E45E002038B50446FFF7DEFF6F
:105480002246082108480AF056FD054620B1074883
:1054900006F046FA284638BD002CF8D011F05EF927
:1054A000034B0C221A50F2E7E45E0020F0000020CB
:1054B0000C00000010B50446FFF7C0FF214603486A
:1054C0000AF0E8FC024806F02BFA10BDE45E00206A
:1054D000F000002068B108B5064A074B1B68074971
:1054E000A1FB03139B0C00FB03F042F00103984760
:1054F00008BD7047607401000002002083DE1B437A
:10550000234BD3F82436C3F3080282F48072C3F32A
:10551000094388324FF47A6101FB03F31D4901FB13
:1055200002335B001C4AA2FB0312D20B4FF4FA2198
:1055300001FB1231B1F57A3F00D30132174BC3F8AA
:105540000429134BD3F82036C3F3080282F4807287
:10555000C3F3094302F217224FF47A6101FB03F30C
:1055600042F21C5101FB02331B0A0B4AA2FB03123D
:1055700092094FF47A7101FB1231B1F5FA7F00D331
:105580000132064BC3F81C270122C3F800267047DE
:1055900000C0FF00F82A0080D34D621000001250B6
:1055A00008B5044B044A1A6000F008F8FFF7A8FF9A
:1055B000002008BD000200200020A107024B0122AC
:1055C000C3F80424704700BF002008E0094BD3F85B
:1055D0000C3403F48033014618B1B3FA83F2520954
:1055E00002701BB10B781BB1002070470020704780
:1055F0000120704700E01050004870474C5F0020C9
:10560000014BC01A40117047045F002038B50546B1
:105610000C46FFF7F5FF0146402203480BF0A8FEB9
:1056200001462846A04738BD146A010030B583B052
:1056300005460C46FFF7E4FF01464023009323464E
:10564000054A06480BF0AEFE011E01DB03B030BD7B
:105650002846A047FAE700BFED130100146A0100D5
:1056600008B5022806D0042803D1002104480BF015
:105670006DFE08BD012102480BF068FEF9E700BF8E
:10568000146A010010B582B0EFF31184202383F374
:105690001288BFF36F8F134A136843F00201116041
:1056A00013F0010F09D1002384F31188BFF36F8F2A
:1056B00093B90BF0A3FE02B010BD0DF10700FFF788
:1056C00085FF9DF807300BB10023EDE7FFF794FF4E
:1056D0000BF02AFE0123E7E7002103480BF036FE1A
:1056E000E9E700BF5C5F0020146A010010B5EFF32A
:1056F0001184202383F31288BFF36F8F074A136846
:1057000023F00201116013F0010F04D084F311881B
:10571000BFF36F8F10BD0BF076FEF7E75C5F0020E4
:1057200070B50546012806D12C4BD3F8503403F050
:105730000303012B4BD00FF0C7FD044618B9284BCB
:105740001B78002B38D1EFF31186202383F31288C6
:10575000BFF36F8F01241CB9204B0422C3F8082328
:105760001E4BD3F84C24D3F84C3403F0030312F44B
:10577000803F03D0012B25D0012D23D0F4B130463A
:105780000BF081FC154BD3F8403413F0FF0FE7D139
:10579000124BD3F80831002BE2D0104B0022C3F893
:1057A0000821D3F808210122C3F840240D49202004
:1057B000C1F8A0011A61D3E70026CCE701200BF065
:1057C00027FEDFE724B186F31188BFF36F8F70BD2A
:1057D000024B0422C3F80423F9E700BF00E0105095
:1057E0005666002000E100E000B585B0CDF800D09D
:1057F000CDF804D000230293012303936B46074A9C
:105800000BF0ECFD002805DB43F609520023684647
:1058100006F020F905B05DF804FB00BF6D1401002F
:10582000F8B506460022012140F205100BF0E7FB17
:10583000114805F073F8D8B9074605F08DF8002433
:1058400003E00123AB601C44E4B2012C0ED82146D6
:1058500030460BF01BFD0546214630460BF023FD7C
:1058600006490BF0F7F8031EEBDA1F463846F8BD81
:105870006FF00407FAE700BF61560000E4900100F2
:1058800010B504460E4B0121D3E8EF2FC3E8E01F0B
:105890000028F9D11AB1631E012B0DD910BD09489A
:1058A0000BF001FD084900234B608B60CB600123A6
:1058B0008B600BF0EBF8EEE72046FFF731FFEDE7EA
:1058C000005F0020146A0100F05E002010B504465D
:1058D0000A2806D0E1B2064883685B6898472046EC
:1058E00010BD034883685B680D219847F2E700BF4D
:1058F000946A010010B5044C2046FFF785FD204650
:10590000FDF7BCFD10BD00BFCD58000008B505482F
:105910000FF07BFC18B1FFF7EDFF002008BD6FF022
:105920001200FBE7946A0100036803F01F020260A3
:105930005B09012B06D0022B06D00BB1002070476B
:1059400002487047024870470248704700A0105054
:1059500000820D5000040550022806D0012806D010
:1059600008B904487047002070470348704703484F
:10597000704700BF346A0100746A0100546A010074
:1059800038B50446456828460BF05BFE20B911493E
:1059900020460BF005FE38BDA8680FF08EFB0028EE
:1059A000F5D10021A8680FF084FB80B900220A49D4
:1059B000A8680FF076FB00220121DB200BF01FFB13
:1059C0000022012140F20D100BF019FBDFE76FF010
:1059D0000400E0E703170100E5160100036803F087
:1059E0001F0202605B09012B06D0022B06D00BB10F
:1059F00000207047024870470248704702487047CD
:105A000000A0105000820D5000040550F0B583B086
:105A100001900C4617461E4601A8FFF7DFFF0199CB
:105A2000203150F82130094D1D4044EA470444EA32
:105A300086039DF8202043EA02239DF8242043EAB0
:105A400002432B4340F8213003B0F0BDF0F0FCFFDF
:105A50002DE9F04F85B007468B469146002423E0A0
:105A60004FF0FF3535E0C9F804560126039631465C
:105A7000B5F1FF3F16D0B1F1FF3F40F02A8157F852
:105A8000083013F4004F02D00126002203920022B6
:105A90000192CDF800A0C3F3412332460399284672
:105AA000FFF7B4FF0134E4B25C4580F016814FEAA1
:105AB000840857F82430C3F3C322C3F30805082A27
:105AC00000F20D818A4911F802A040F2FF129542BE
:105AD000C6D01B0E4E2B00F2058101A252F823F016
:105AE000675A00001D5C00002B5C0000375C000062
:105AF000455C0000535C00005F5C0000E55C00005A
:105B0000E55C0000E55C0000E55C0000E55C000091
:105B1000E55C0000E55C0000E55C0000E55C000081
:105B2000E55C0000E55C0000E55C0000E55C000071
:105B3000E55C0000E55C0000795C00008B5C000027
:105B40009D5C0000AF5C0000E55C0000E55C0000CF
:105B5000E55C0000E55C0000E55C0000E55C000041
:105B6000E55C0000E55C0000E55C0000E55C000031
:105B7000E55C0000E55C0000E55C0000E55C000021
:105B8000E55C0000E55C0000E55C0000E55C000011
:105B9000E55C0000E55C0000E55C0000E55C000001
:105BA000E55C0000E55C0000E55C0000E55C0000F1
:105BB000E55C0000E55C0000E55C0000E55C0000E1
:105BC000C15C0000E55C0000E55C0000E55C0000F5
:105BD000E55C0000E55C0000E55C0000E55C0000C1
:105BE000E55C0000E55C0000E55C0000E55C0000B1
:105BF000E55C0000E55C0000E55C0000E55C0000A1
:105C0000E55C0000E55C0000E55C0000E55C000090
:105C1000E55C0000E55C00006D5C0000C9F80C5616
:105C2000002603964FF0FF3122E7C9F810560126EF
:105C3000039631461CE7C9F80856002603964FF034
:105C4000FF3115E7C9F800560026012303933146BA
:105C50000EE7C9F8045601260396002108E7C9F8A3
:105C60000856002603964FF0FF3101E7C9F8105699
:105C7000012603963146FBE6C9F8605557F808102F
:105C8000C1F3004101260396F2E6C9F8645557F8BE
:105C90000810C1F3004101260396E9E6C9F86855EA
:105CA00057F80810C1F3004101260396E0E6C9F851
:105CB0006C5557F80810C1F3004101260396D7E64A
:105CC000042128460BF0A0FE012603964FF0FF3179
:105CD000CEE628460BF090FED1E6002004E06FF0FF
:105CE000150001E06FF0850005B0BDE8F08F00BF42
:105CF00098910100F8B505460E4647680FF0E4FAA2
:105D000020B9154B1B7843B1002300E0012353B9A0
:105D100028460BF02DFF044611E00123F7E784F33A
:105D20001188BFF36F8FEFF31184202383F3128860
:105D3000BFF36F8F28460BF0A8FE0028EFD07B6AD8
:105D40001E700122796A28460BF0A8FE84F31188A0
:105D5000BFF36F8FF8BD00BF5666002038B504460C
:105D600045680121E8680BF028FF636818686B69D3
:105D7000C0F8243505F118010BF06BFE20460BF03E
:105D8000AEFE00B138BD024920460BF050FEF9E7E7
:105D9000231C010038B50E4C21686568501A63EB6E
:105DA000050C400940EACC604FEA401C11EB0C01A5
:105DB00045EBD0652160656006490A604B60064B83
:105DC00000240025C3E9004506F012FD38BD00BFE0
:105DD000F8580020E0580020F058002008B50022B4
:105DE0000121E4200BF00BF9164AD2F8183723F4FE
:105DF0004033C2F81837002005F082F9002820DB74
:105E00001149012005F0C4F900281ADB05F04EF90C
:105E100020F01F000D4B186059600D4B1860596041
:105E20000C4B4FF0FF304FF0FF31C3E9000100226F
:105E300009490A4B187A05F047F9094B67221A609D
:105E4000002008BD00200E50FC010020F858002062
:105E5000D8580020E0580020955D0000F401002093
:105E60008C5F002008B505F021F9064A13685268D6
:105E7000C01A61EB0201044B18605960400940EA06
:105E8000C16008BDF8580020F0580020F0B583B07C
:105E90000146254B187A254B1C685D68244B1A680F
:105EA0005B689D4208BF94422BD0CB175B0143EA4D
:105EB000D16349011F4E32687668DFF87CC0DCF898
:105EC0000070DCF804E012EB070C46EB0E0E11EB51
:105ED0000C0243EB0E0315490A604B60944275EBCC
