:10000000582300201D2A000043870000092A000011
:10001000092A0000092A0000092A0000092A000014
:100020000000000000000000000000009D2B000008
:10003000092A000000000000352B0000092A0000FA
:10004000512D0000512D0000512D0000512D0000B8
:10005000512D0000512D0000512D0000512D0000A8
:10006000512D0000512D0000512D0000512D000098
:10007000512D0000512D0000512D0000512D000088
:10047000512D0000512D0000512D000053B94AB9F3
:10048000002908BF00281CBF4FF0FF314FF0FF309C
:1004900000F00CB8ADF1080C6DE904CE00F010F8D6
:1004A000DDF804E0DDE9022304B07047704700BFC7
:1004B000034613F8012B002AFBD1181A01387047A4
:1004C0002DE9F04786468C460846089E1546744638
:1004D0001946002B40F0C1808542B2FA82F245D91C
:1004E0004AB1C2F1200300FA02FC954094402EFA72
:1004F00003F343EA0C0C4FEA154EA8B2230CBCFBE5
:10050000FEF80EFB18CC08FB00F943EA0C439945B2
:1005100028D9EB1808F1FF3704D2994502D9A8F180
:1005200002072B44A3EB0903A4B2B3FBFEFC0EFBB2
:100530001C330CFB00F044EA0344A04214D92C19EC
:100540000CF1FF3304D2A04202D9ACF102032C44D7
:10055000241A43EA07401EB1D4400023346073607C
:10056000BDE8F0874746DDE76346F1E792BB431BF2
:1005700001214FEA154EAFB2200CB3FBFEFC0EFB7F
:100580001C330CFB07F840EA0343984561D9EB188C
:100590000CF1FF3004D2984502D9ACF102002B4493
:1005A000A3EB0803A4B2B3FBFEFC0EFB1C330CFB55
:1005B00007F744EA0344A7424DD92C190CF1FF3345
:1005C00004D2A74202D9ACF102032C44E41B43EA53
:1005D0000040C0E7C2F120039540944020FA03F1A7
:1005E0002EFA03F34FEA154E9040AFB20343B1FB2E
:1005F000FEFC0EFB1C10190C0CFB07F841EA004135
:10060000884522D969180CF1FF3004D2884502D9F7
:10061000ACF102002944A1EB08019BB2B1FBFEFC46
:100620000EFB1C110CFB07F743EA01439F420ED956
:10063000EB180CF1FF3104D29F4202D9ACF1020158
:100640002B44DB1B41EA004193E76046E3E7614648
:10065000F7E76046A4E76346B8E7834206D916B9D0
:10066000002108467CE7C6E900E0F9E7B3FA83F722
:100670008FB9834201D3724508D8BEEB020460EB08
:10068000030301209C461EB9002169E73846FAE7BA
:10069000C6E9004CF8E7C7F1200CBB400EFA07F59D
:1006A00022FA0CF42EFA0CF1BA401C4320FA0CF397
:1006B000B8404FEA144901431FFA84FEB3FBF9F82E
:1006C00009FB18300B0C08FB0EFA43EA00439A456D
:1006D00040D9E31808F1FF3004D29A4502D9A8F1B5
:1006E00002002344A3EB0A0389B2B3FBF9F809FB28
:1006F000183308FB0EFE41EA03418E452CD96118E0
:1007000008F1FF3304D28E4502D9A8F10203214437
:1007100043EA0040A1EB0E01A0FB02984145CE4602
:10072000434602D306D14D4504D20138B9EB020E3F
:1007300068EB0403002EA7D0B5EB0E0261EB0301BA
:1007400001FA0CFC22FA07F3F9404CEA0303C6E96C
:10075000003199E74046C5E74346D9E738B5836895
:1007600005699C697CB112F4000F06D02D68012345
:100770008B401D4201D082F0C062044B134002F056
:10078000B072A04738BD6FF05700FBE7400000068D
:100790002DE9F04184B0154609F051FE02464B01A7
:1007A00043EAD0634001801A63EB01039B0043EAF4
:1007B00090738000841843EB0101C90047F61222B0
:1007C0000023E00041EA5471FFF758FE06460F4649
:1007D00080460024032C0ADC594B03EBC4031B792D
:1007E00025FA03F313F0010F03D10134F2E74FF0C0
:1007F000FF34002C0DDB534B1A68534B53F8221077
:10080000A14209D02246514807F016F94D4B00226B
:100810001A6004B0BDE8F081494BE50003EBC40267
:10082000117953F8340006F042FF494B1D4453F848
:1008300034206B68B8EB020867EB0303B8F1320FA2
:1008400073F10003E5DB424B43F834606F6001282D
:1008500016D03C4B1B683F4A02EBC30152F83320D1
:1008600049680A43D5D03C4A02EBC30142F83360E1
:100870004F600133334A1360042BCAD1002313E0C5
:10088000304B1A68334B03EBC20143F832604F60C0
:10089000BFE7314A52F833202E4951F83310521A2B
:1008A0002E4941F823200133032BF2DD00230CE015
:1008B000591C284A52F83120274850F83300121AA0
:1008C0000433264840F823200B46022BF0DD00239A
:1008D000062B09DC214A52F82320063A41F28231E4
:1008E0008A4226D80133F3E7012323B31B49CB689F
:1008F0000A6948698C6903940290019200938B689D
:100900004A680968164807F097F800230D4A1360F3
:10091000032B3FF77EAF0F4A02EBC30200200021FA
:10092000C2E900010C4A02EBC302C2E90001013333
:10093000EEE70023D9E70B4807F07EF8E5E700BFB4
:1009400028B70000580B002018B70000D8B50000E9
:100950000003002040030020200300205C0B002047
:100960000CB6000024B6000070B5204807F064F80B
:100970001F4807F061F81F4807F05EF800241CE0EC
:100980001D4E06EBC4054FF48031284606F078FE74
:100990004FF0E861284606F03EFE04EB4403174999
:1009A00001EB83012A7901239340154A4A608B6049
:1009B00056F8340006F08BFE0134032C0DDC0E4B90
:1009C00053F8340009F0EFFA0028D9D121460D4838
:1009D00007F032F84FF0FF3070BD0B4807F02CF8ED
:1009E00040F21B60002104F003FFF9E73CB6000071
:1009F00064B6000098B6000028B70000280B00205D
:100A000091070000D8B60000F0B600002DE9F04FC5
:100A100091B005920293134602F004020092C3F3D0
:100A2000C20210F00303019340F02B8280468A46F5
:100A30000132041D00284FD0B8F1000F05D0A4EBFF
:100A400008030433534500F21F82029B5D1E019B85
:100A500004930693039300264FF0FF3B0427B94607
:100A6000B8F1000F01D0029B2360531E0793002AA8
:100A700040F35D81059B13F0020228D00120A4EB16
:100A800008018B081AB1B1F5007F80F00382039949
:100A90000F2900F20282B8F1000F00F06081DBB292
:100AA00001F140026A4402F8103C02F820BC002820
:100AB00000F0518163F07F0301F140026A4402F8C3
:100AC000103C049B01330493039B013303930434D0
:100AD0000022CC4640463DE001F0070A5444CAF1EA
:100AE000080AA9E7002634E0002632E0002630E0BC
:100AF0000827BC462DE025292BD10BF1010B01263F
:100B00000427BC4625E04729EED82A2914D32A39E0
:100B1000C9B24FF0010E0EFA01F14FF6DA7E11EA7A
:100B20000E0F16D111F0625F40F0C08011F0010F7E
:100B300040F08C8000260CE0252903D10BF1FF3B0F
:100B4000002606E001D9002603E0202901D0232950
:100B5000CCD11D466B1C6978002900F01981002E4C
:100B6000C9D07A29BED84C29CDD34C392E2961D889
:100B70000FF2040E5EF821F0530B0000350C00005C
:100B8000350C0000350C0000350C0000350C000061
:100B9000350C0000350C0000350C0000350C000051
:100BA000350C0000350C0000450C0000350C000031
:100BB000350C0000350C0000350C0000350C000031
:100BC000350C0000350C0000350C0000AD0C0000A9
:100BD000350C0000450C0000450C0000AD0C000079
:100BE000AD0C0000AD0C0000530B0000450C0000E4
:100BF000F10A0000350C0000530B0000350C00001A
:100C0000090D0000450C0000090D0000350C000026
:100C1000350C0000110D00003F0C0000450C0000D9
:100C2000350C0000350C0000450C0000350C0000B0
:100C3000390C000000268CE70427BC4689E704270E
:100C4000BC4686E729786C2924D000263C44013C28
:100C5000B4FBF7F407FB04F420B1211A61445145B9
:100C600000F21581002A58D1BCF1040F00F08880F1
:100C7000BCF1080F40F014811A99073121F00701E7
:100C800001F108051A95D1E9008908B1C4E9008984
:100C900008345EE713F8021C6C2903D000260427F1
:100CA000BC46D3E700260827BC46CFE729784C2965
:100CB0001AD01A99073121F0070101F108061A9696
:100CC000D1E90067073424F0070440B1211A083144
:100CD000514513D829784C2913D0C4E9006708344A
:100CE00000260827BC4634E71A99073121F007018E
:100CF00001F108061A96D1E90067E3E76FF01B00DF
:100D0000BCE0C4E90067EAE700260427BC469DE78B
:100D1000324600260427BC4698E7E14680461A9AE8
:100D2000111D1A9112680292079A1D4698E6624BAD
:100D3000029A9A4204D3614B9A420AD3002300E0FC
:100D40000023002B7FF496AE059B03F002020020E7
:100D500095E60123F5E7069B01330693B4E610B14F
:100D60000AF1010AB0E6009B13B10AF1020AABE6F0
:100D70000298FFF79DFB0AEB000303F1020AA3E6CA
:100D80001A990D1D1A95096800B121600434E0E636
:100D90008046231AB3F5806F80F0858090B10022E1
:100DA00002609B080370009B83B1069BC370049B89
:100DB00088F802301BBB019DDDF80C90DDF810B007
:100DC000029F3DE05344A3F1080057E0069B4370A7
:100DD000EDE701339842EED903F140026A4412F87C
:100DE000101C12F9102C002AF3DA01F07F01A4EB99
:100DF00008020132524559D804F8011BE9E7019B6A
:100E00000398E7E7009B43B305F140036B4413F8F5
:100E1000203C04F8013B019EA4EB0803334401335A
:100E2000534546D805F140036B4413F8103C04F8D1
:100E3000013B32463946204609F0DDFD3444013598
:100E4000A94519D9BBF1000FDCD005F140036B4473
:100E500013F9103C002BD5DAF1E705F140036B44A0
:100E600013F8103C58F82370002248F82320384625
:100E7000FFF71EFB461CCFE7A4EB080011B0BDE84E
:100E8000F08F6FF00D00F9E76FF01B00F6E76FF0E1
:100E90001B00F3E76FF01500F0E76FF01500EDE7CA
:100EA0006FF01500EAE76FF01500E7E76FF01B0041
:100EB000E4E76FF01B00E1E728AB000010C300007F
:100EC0002DE9F04F97B000AF8346BA613B61D7F888
:100ED0008030C3F3C0033B62F96011B906F024FD12
:100EE000F8609BF80260B14636B1D7F8803013F055
:100EF000010F0DD1002300E000239BF803207A624C
:100F000042B1D7F8802012F0020F22D1002202E075
:100F10000123F2E7002202B9EBB19BF80050AA00CE
:100F2000BA60DBF804207A610BEB8505BA69F2B18F
:100F3000002B40F00481B9F1000F00F00F81D7F8C9
:100F4000803013F0040F40F00D810020F861064658
:100F5000F9E00122DFE7BB691BB13A69F96858463D
:100F60009847FC6820465C37BD46BDE8F08FFC68BA
:100F7000E3B94D4400233B6123E0044401350136CD
:100F80004E451AD22A7800235BF822201946B86908
:100F900006F0DFFCBAF1000FEFD0D7F888309845A3
:100FA000EBD22AF8180008F10108E6E70026C7F896
:100FB0001C80B046D7F884A0E2E7C7F81080D7F8C5
:100FC0001C80D7F8803003F00503FB604FF0000A67
:100FD000A146C7F81CB09CE000253B6A7BB9002DF8
:100FE00079D0D7F8803013F0010F79D1FB68002B4E
:100FF0006FD10223A9EB030988E00125EDE75946EB
:10100000786906F0ECFC0028E9D06C46002387F8EC
:101010002C30022387F82D308AB0694611F1100276
:1010200037D012251AB1042D01DDB34B4B610023DB
:1010300087F82830022387F829306ABB112D45DD57
:10104000122362B1042087F82C00002087F82D00BD
:1010500087F82E00012087F82F00F86A08616FF3E7
:1010600000086FF341086FF382086FF3C50802218F
:1010700061F38818C3F30A0363F353286FF31F580F
:10108000002341469D4800F061FDA546A9F10209F3
:101090003CE06FF00045C5E72B46082D01DD78697F
:1010A00088610C2B01DDC1F81CB001F12003002088
:1010B00009E000F1300C07F1280EF4441CF830CCA4
:1010C00003F801CB01300128F3D9B7E76FF01B0318
:1010D000B7E701238EE7D7F8803013F0020F15D061
:1010E000002322461946B86906F033FCD7F884304D
:1010F00053B13B69D7F88820934205D2D7F88420B2
:1011000022F8130001333B61013881440AF1010ADE
:1011100035467B6A9A4510D22E4616F802BB6B788C
:10112000FA6952F82340764B9C42FFF455AF754B59
:101130009C42FFF462AF00254FE74C4612E707F1EF
:1011400044000023FB6118B14A46294609F053FCCC
:101150004D444FF00008C7F804901EE00020F861ED
:101160000646F0E7FE6107F134000026EBE70025B4
:101170003B6A33BB002D3BD0D7F8803013F0010F12
:1011800026D0731C06F1300207F12801561806F824
:10119000149CDEB208F1010825467B6A98454AD2C4
:1011A0002C4614F802AB95F801905BF82930544AAC
:1011B0009342DCD3534A934201D30025D8E701255B
:1011C000D6E75146786906F00AFC0028D2D0E1E75C
:1011D000D7F8803013F0040FDCD0FA69531C30329A
:1011E00007F128010A4402F8249CDBB2FB61D1E735
:1011F000D7F8803013F0020F09D0731C06F13002CB
:1012000007F12801561806F8149CDEB2C2E7F86907
:10121000431C00F1300107F128028A1802F824ACBF
:1012200002460232D2B2FA6107F1580252FA83F34F
:1012300003F8249CAEE7D7F804909BF8003087F8B9
:1012400054309BF80130334487F85530D7F880305C
:1012500013F0020F0ED1FB69C3F3470387F8573031
:10126000D7F8803013F0010F06D113F0040F3ED1F0
:10127000002302E00023F1E7002387F85630DBF873
:1012800000003863786DCBF80000D7F81080424634
:10129000B9685846D7F818A0D047041EFFF662AECA
:1012A000386BCBF80000C7F810804246F96907F1A7
:1012B0003400D04700285EDB04EB0008B9684944DD
:1012C0007B6A01EB4301D7F810904A46FB68591A34
:1012D0002846D047041EFFF645AE08EB04054FF044
:1012E0000008C7F824B0B3465446CA4621E0FB695B
:1012F000C3E74FF0000909E054B70000F4B4000060
:1013000028AB000010C300004FF000095246012135
:1013100007F12C00A04700282FDB05444B4632463E
:101320005146204606F015FB002828DB054408F14D
:101330000108D84518D208F1300307F128021344F8
:1013400013F8143C87F82C307A6A52F82360D7F8E7
:101350008430002BCDD0D7F888309845D4D2D7F838
:10136000843033F81890D1E73A6900210846BB6908
:1013700098472C46F6E50446F4E50446F2E50446B3
:10138000F0E500BF014B1860704700BFD00000209F
:1013900080B505460E461746984604F08DFA03467A
:1013A00009F0B8FB0446DFF8189049F800304246CF
:1013B00039463046A84754F8090001F0A1FB00BFA8
:1013C000080000002DE9F04383B0044608461546A6
:1013D000238B13F0080F05D103F0070600230093B9
:1013E000019354E0012909D043F02003238385F3BE
:1013F0001188BFF36F8F03B0BDE8F08343F0100393
:101400002383F4E7204606F04DFE42E0D4F8149022
:101410004A466946204606F05EFE4FF00008238BE0
:1014200003F00707B74269D0A268002A66D00122FC
:1014300043F00803238385F31188BFF36F8F002ADD
:1014400064D1009B2BB14B463A466946204606F0D4
:10145000BBFEB8F1000F02D034492046C047EFF37D
:101460001185202383F31288BFF36F8F238B23F022
:1014700008032383238B13F0100F4DD023F01003A8
:1014800023830120268B06F007060028AFD0022810
:10149000B8D00028ABD0013804282BD801A353F8CA
:1014A00020F000BF0D140000F5140000B914000076
:1014B000CD140000E11400002369D3F80080062158
:1014C000204606F0C5FD4FF00009A8E72369D3F8D0
:1014D00004800421204606F0BBFD4FF000099EE782
:1014E0002369D3F808800521204606F0B1FD4FF0AE
:1014F000000994E74FF00008C14690E7009A0AB14E
:10150000002295E7B8F1000F92D1B3E74A46394679
:10151000204606F0A5FD94E713F0200F04D023F039
:10152000200323830220ADE70020ABE7F781000012
:1015300038B505460B4C00E010340B4B9C420FD2E3
:1015400063685B79002BF7D02946204606F01EFF22
:101550000028F1D023681B68294620469847EBE70E
:1015600038BD00BF4CB500005CB5000070B5064644
:101570000D46084C04E02A46314620469847103470
:10158000054B9C4204D223689B69002BF3D1F6E7FC
:1015900070BD00BF4CB500005CB500002DE9F04106
:1015A000074605460AE007EA0807144B03EB061353
:1015B0005B6804221968204606F04AFFD5B195FA07
:1015C000A5F6B6FA86F60D4C04EB06140123B340DB
:1015D0006FEA030825EA0305237B002BEED03301D5
:1015E000064AD3581B69002BDDD0204698470028B7
:1015F000E4D1D8E73846BDE8F08100BF4CB5000023
:101600002DE9F04180460F461D4BD3E8EF5F6A1C81
:10161000C3E8E12F0029F8D16DBB1A4C002607E082
:10162000636804221968204606F012FF0136103460
:10163000154B9C4211D2237B002BF7D0204606F09D
:1016400099FE23681B69002BEAD0204698470028A2
:10165000E6D00123B3401D43E8E7B8F1000F0BD0FB
:1016600055B12846FFF79AFF0546002FF8D00A200B
:1016700006F092FEF4E700252846BDE8F08100BFA1
:101680008C0B00204CB500005CB5000008B5064B83
:10169000186018B1054B1B68092B00DC08BD044815
:1016A00003F028FCFAE700BF800B0020880B002025
:1016B000D802002008B5024803F01CFC08BD00BF9A
:1016C000D802002030B589B000220F490F4808F039
:1016D000C5FE0F4D00220023CDE90623002404940B
:1016E0000E2303930294019400940A4B4FF440722A
:1016F0000949284608F0C9FC0849284603F074FC4B
:10170000204609B030BD00BFB516000028080020F3
:1017100060030020751A0000181300200CB80000A8
:10172000014B53F82000704728B8000048B108B5B5
:10173000054A1060054B1960084600F0FBFC0020CC
:1017400008BD6FF015007047D40000207C0B00200E
:1017500008B5054B1B781BB1034B01221A7008BD5D
:10176000024803F0C7FBF7E70C130020D802002063
:1017700008B50C4BD3E8EF1F0131C3E8E21F002A84
:10178000F8D130B9084808F075FE084803F0B2FBFC
:1017900008BD074BD3E8EF1F0139C3E8E21F002A59
:1017A000F0D0F7E7840B002028080020D8020020A2
:1017B000880B0020044B00200146D3E8EF0FC3E85C
:1017C000E21F002AF9D17047840B002038B5FFF7DB
:1017D000F1FF0546094C00E01034094B9C420BD246
:1017E00063685B79002BF7D023685B68002BF3D02C
:1017F000294620469847EFE738BD00BF4CB50000AA
:101800005CB50000034B18680028D4BF00200120FD
:10181000704700BF840B002010B5044C04492046DB
:1018200006F071FA034B1C6010BD00BF38020020A7
:1018300014B80000780B002008B500230C4A137080
:101840000C4A13600C4A13600C490D48FFF76EFFF9
:10185000FFF7E2FF0B4A06E00A4BD31A1B110133D4
:1018600051680B711032084B9A42F5D308BD00BF86
:101870000D130020840B0020880B002040420F0035
:10188000918300004CB500005CB5000008B501462E
:10189000014806F0AFFD08BD3802002008B5024837
:1018A00006F014FB08BD00BF3802002008B5014651
:1018B000024B186806F0A4FD08BD00BF780B00209D
:1018C00008B5024806F0A0FD08BD00BF38020020A0
:1018D00010B582B000220023CDE90023284B1878F0
:1018E00008B902B010BD684606F0A6FD044660B116
:1018F000FFF71EFE2046FFF7D9FF224BD3E8EF1F6C
:101900000139C3E8E21F002AF8D1FFF77BFF58B97D
:101910001D4A1368516813F57A7341F10001136091
:101920005160FFF7CDFFDCE708F089FD02464B016F
:1019300043EAD0634001801A63EB01039B0043EA52
:101940009073800010EB020C43EB0101C90047F6D5
:10195000122200234FEACC0041EA5C71FEF78EFDB3
:10196000094A13685268C01A61EB020140F2E93378
:10197000984271F10001CBD3FFF728FFC8E700BF01
:101980000C130020880B0020200800200F4B1B7830
:1019900003B1704710B500210120FFF731FE0C4C58
:1019A00000E010340B4B9C4208D263685B79002B3B
:1019B000F7D023689B6820469847F2E7FFF788FF37
:1019C0000028FBD1014B01221A7010BD0D1300201D
:1019D0004CB500005CB5000010B582B0184BD3E8E0
:1019E000EF2F511CC3E8E01F0028F8D1154B1B78DE
:1019F00063B9154B1B68B3B1BAB1092A13D11348A7
:101A000008F038FD124803F075FA0CE0EFF311848A
:101A1000202383F31288BFF36F8FFFF759FF84F3FE
:101A20001188BFF36F8F02B010BD00220023CDE9F3
:101A3000002347F612220023044804F07DFAF2E75F
:101A4000880B00200D130020800B002028080020A8
:101A5000D802002010B50446044B1B689847A060CC
:101A60002146034806F0ECFC10BD00BFD400002066
:101A7000380200202DE9F04100210846FFF7C0FDA3
:101A8000804650B140F21B66002709F043F8154B21
:101A90001858FFF7FBFD002515E04FF0FF364FF01B
:101AA000FF37F2E74046FFF779FD804670B94FF007
:101AB000FF364FF0FF3709E02C4632463B460A48D6
:101AC00003F05CFA2546B8F1000FEBD1FFF700FFF9
:101AD00004460028F6D1002DEED000210846FFF77D
:101AE00045FDEAE708000000D80200200248034B49
:101AF000C01AC008704700BF4CB50000ECB400002D
:101B000010B50C46FFF7F2FFA04203D9024B53F881
:101B1000340010BD0020FCE7ECB4000000B589B033
:101B2000059206930023079362B1074A0C9B029328
:101B30000B9B01930A9B009305ABFFF7C1F909B01A
:101B40005DF804FB0022F1E7678400002DE9F04F07
:101B50008BB004AF05461E468846C1F34A24002CCC
:101B600000F0898091460022FA603A617A6104238C
:101B70000293FB1801930A23009307F10C032146FB
:101B80004846FFF79DF9B0F5006F58D3D9F8041017
:101B90006D4600233B7302237B738AB004AC14F1BF
:101BA000100217D012201AB1042801DD3B4B6361EB
:101BB00000233B7002237B70CAB10346082800DD76
:101BC000A1610C2B02DD40F2FF73E36104F12003FD
:101BD00000210AE06FF00040E5E701F118063E44FD
:101BE00016F8186C03F8016B01310129F5D9112899
:101BF00022DD122342B10421397300217973B973B4
:101C00000121F973F868206100216FF300016FF37F
:101C100041016FF382016FF3C501022060F3881167
:101C2000C3F30A0363F353210023C1F313011C48D8
:101C300006F08FFCAD462DE06FF01B03DAE760F392
:101C40005328C0F30A0A0AEB1850173020F0070097
:101C50008008FFF71BFE8346B0B104230293FB18F4
:101C600001930A230093534600F11002214648468F
:101C7000FFF754FF08E004EB1154173424F0070475
:101C8000A008FFF703FE83463346424629465846DE
:101C900006F002FC1C37BD46BDE8F08F48B80000D6
:101CA00014B500002DE9F04F85B080460D4617466B
:101CB0001E46DDF838B0DDF84090B9F1000F41D094
:101CC000119B039300934B460F9A10210020FEF7BF
:101CD0009DFEB0F5006F2DD282460BEB000317334B
:101CE00023F0070300246FF300046FF341046FF344
:101CF000820468F3C50467F3881460F353246BF31C
:101D00001F549808FFF7C2FD074650B11030B9F1D3
:101D1000000F06D0119B00934B460F9A5146FEF7D9
:101D200075FE334622462946384606F0B5FB05B017
:101D3000BDE8F08F40F2FF73034A0221034806F02A
:101D4000FDFBF4E70020C7E788B8000014B50000E9
:101D5000406820B1034BC01A40F3CF0070474FF0EA
:101D6000FF307047ECB400000EB400B582B00146FD
:101D700003AB53F8042B0193034801F0D1F902B0EF
:101D80005DF804EB03B070478985000010B584B09E
:101D900011F0440F05D01A4B1B6833B9002004B072
:101DA00010BD1849FFF7E0FFF9E717490968B2FBD2
:101DB000F1F2B2FBF3FC03FB1C224FF47A7E0EFB24
:101DC00002F2B2FBF3F403FB14210EFB01F1B1FBB1
:101DD000F3F10E4AA2FB0C32D20A4FF4616303FB0B
:101DE00012CC0B4BA3FB0CE35B0902910194C3EBF8
:101DF0000311ACEB810100910649FFF7B5FFCEE777
:101E0000940B0020C0B80000900B0020C5B3A29135
:101E100089888888CCB8000061B108B52AB1064A23
:101E200052F8232012B9054A00E0044A0449FFF79A
:101E30009BFF08BD704700BF70B90000E8B8000004
:101E4000F0B800002DE9F04105461746069EDDF882
:101E50001C8081B900242EB1324611492846FFF773
:101E600083FF0444B8F1000F14D06FB1099B042B19
:101E700013D00C4909E00C4B099A53F822200B4966
:101E8000FFF772FF0446E6E7064942462846FFF799
:101E90006BFF04442046BDE8F0810549F5E700BF2B
:101EA00008B90000F8B8000084B9000000B90000CB
:101EB000F4B800002DE9F04F87B005460C460492B7
:101EC00005939DF84C7001F0020B01F0010AC1F37B
:101ED000C00801F4807906F0B9FA18B30246164931
:101EE0002846FFF741FF0646BBF1000F1CD13A46DA
:101EF0005146284606F06FFBB9F1000F01D00023D0
:101F000011930397129B0293119B0193109B0093D3
:101F10000023049A41462846FFF794FF304407B057
:101F2000BDE8F08F0026DFE7059A21462846FFF737
:101F30002DFF0644DBE700BF0CB9000011F0100FC5
:101F40000BD108B511F0200F03D00449FFF70CFFA7
:101F500008BD0349FFF708FFFAE77047ECB6000039
:101F600010B900002DE9F04105460F461646984687
:101F70000699FFF7E3FF0024444505DA2449284683
:101F8000FFF7F2FE0134F7E7002409E02049284674
:101F9000FFF7EAFE0BE01F492846FFF7E5FE013494
:101FA0000F2C0CDC002C02DD14F0070FEED0B44235
:101FB000F1D23A5D18492846FFF7D6FEEFE71749F8
:101FC0002846FFF7D1FE002409E011492846FFF713
:101FD000CBFE0BE012492846FFF7C6FE01340F2C5A
:101FE00013DC002C02DD14F0070FEED0B44207D250
:101FF0003A5D0C4B9B5C13F0970FEBD12E22E9E777
:1020000003492846FFF7B0FEE8E7BDE8F08100BFCE
:1020100004B900001CB9000014B9000020B9000088
:1020200024B9000001C200002DE9F04184B004464B
:102030009DF82C500C9F0E9E95B9012B1ED019486F
:102040004FF0000827B13B462246174905F097FCA0
:10205000C6B905BB204606F080FA04B0BDE8F081A1
:1020600003950A980290019300920B4600220F9963
:102070002046FFF71FFF80460C48E3E70B484FF070
:102080000008DFE70F9B0093434632460D99204638
:1020900006F0B9FADDE72A460F99204606F0A7FABE
:1020A000D8E700BFB9850000213100008985000014
:1020B0002DE9F04383B00646056842F20F738B4268
:1020C00028BF0B46184A0521684605F01DF804464E
:1020D0007368D3F804900B27DFF8508005E04A4678
:1020E00039464046A8473F1A8044002FF7D173680D
:1020F000D3F804806F4605E0424621463846A8479B
:10210000241A0744002CF7D173685F681B24084E1B
:1021100005E03A4621463046A847241A0644002CDA
:10212000F7D103B0BDE8F08304BB000044B9000060
:1021300028B90000074B01221A6004E04008054A54
:1021400013685B001360044B9842F7D8034B186088
:10215000704700BF900B002040420F00940B0020FE
:1021600070B506460D46002405E0315D04488368DD
:102170005B6898470134AC42F7D3284670BD00BF76
:1021800008AC0000014B036000207047ECB9000070
:1021900008B5034805F050FC024805F04DFC08BDA9
:1021A000ECB9000024BA000008B50348034A121A2B
:1021B000002106F0B8FA08BD000300201413002027
:1021C00008B50648064A121A064906F0B0FA06484B
:1021D000064A121A064906F0AAFA08BD4000002075
:1021E0000003002010C30000400000204000002039
:1021F00010C300002DE9F04182B000AF0446D0F8D2
:1022000000E0D0F804C085686E468AB06B4613F1D2
:10221000100200F0888014218AB10846042903DDE9
:10222000DFF81C81C3F81480082801DDC3F818E02A
:102230000C2801DDC3F81CC0102800DD1D62132925
:1022400074DD14253AB10521397100217971B97114
:10225000F9717868186100216FF300016FF3410193
:102260006FF382016FF3C501012363F38811C5F396
:102270000A0565F353216FF31F5100233148FFF71F
:1022800065FCB546D4F80CC026696569E8468AB095
:102290006B4613F110024CD0142182B10846042978
:1022A00003DDDFF8A4E0C3F814E0082801DDC3F87B
:1022B00018C00C2800DDDE61102800DD1D62132926
:1022C0003ADD14253AB10521397100217971B971CE
:1022D000F9717868186100216FF300016FF3410113
:1022E0006FF382016FF3C501012666F38811C5F310
:1022F0000A0565F353216FF31F51124D0023284641
:10230000FFF724FCC546E369104A3146284606F02B
:1023100015F9A3690E4A3146284606F00FF9083729
:10232000BD46BDE8F0816FF0004175E76FF01B0519
:1023300088E76FF00041B0E76FF01B05C2E700BF10
:1023400054BA000034B5000084BA0000B4BA0000EA
:10235000C4BA000038B504460D4611B10846FFF76F
:1023600049FF012C04D02946204602F0ADFA38BDC1
:10237000EFF30583103B034A0121034806F0DEF822
:10238000F1E700BFF4BA000034B5000030BFFFF73A
:10239000FDBF00BF38B50446054D2A46054908F083
:1023A0002AFB054A0021601908F032FB38BD00BF46
:1023B00000000000A0B500000400000070B5064653
:1023C000064D074B1D444C1B2046FFF7E3FF083C1E
:1023D000C6F8B44005F1080070BD00BF0000000061
:1023E00004000000054B5A699B689A4204D0044AD5
:1023F000536843F080535360704700BF980C00202F
:1024000000ED00E081690D4B5A6942F480725A6117
:10241000BFF34F8FBFF36F8F31F8021C5A6922F45C
:1024200080725A61BFF34F8FBFF36F8F4DF6027307
:10243000994201D0002070470120704700ED00E074
:102440004FF0000C83F800C002F07F4CBCF17F4FCE
:1024500014D102F00C0CBCF1080F04D012F0080FDC
:1024600009D00846704708B5054A0121054806F01D
:102470005BF8002008BD01221A70704700207047E9
:1024800008BB000034B5000008B5314A01213148CD
:1024900006F04AF8304B9B6A13F0007F26D11D20CE
:1024A0002D4B9B6A13F0807F27D12B4B9B6A13F433
:1024B000801F29D1284B9B6A13F4002F2BD1264B68
:1024C0009B6A13F4802F2DD1234B9B6A13F4003F9A
:1024D0002FD1214B9B6A13F4803F31D11E4A936A5E
:1024E0006FEA03436FEA1343936208BD1B4A01215D
:1024F000184806F019F81E20D2E7194A012115489C
:1025000006F012F81F20D0E7164A0121114806F004
:102510000BF80220CEE7144A01210E4806F004F819
:102520002120CCE7114A01210A4805F0FDFF2220B5
:10253000CAE70F4A0121074805F0F6FF2320C8E744
:102540000C4A0121034805F0EFFF2420C6E700BF35
:1025500034BB000034B5000000ED00E04CBB0000CF
:1025600060BB00007CBB0000A8BB0000C8BB000033
:10257000F0BB00000CBC000008B500230B70034A40
:102580000121034805F0D0FF08BD00BF38BC0000A2
:1025900034B5000090B583B000AF0F2923DC2F4C79
:1025A000103900233B7102237B718AB0EC461CF189
:1025B00010021AD0122022B1042802DD284BCCF8D8
:1025C000143000233B7002237B70E2B103460828DD
:1025D00001DDCCF818400C2B01DDCCF81C100CF1FF
:1025E000200300210DE01F4CDAE76FF00040E2E726
:1025F00001F1080404EB070E1EF808EC03F801EBE8
:1026000001310129F4D9112824DD12234AB1042112
:10261000397100217971B9710121F9717868CCF8AB
:10262000100000216FF300016FF341016FF382018D
:102630006FF3C501012060F38811C3F30A0363F34C
:1026400053216FF31F5100230748FFF77FFA0C3720
:10265000BD4690BD6FF01B03D8E700BF5CBC000017
:1026600090BC000074BC000034B50000F8B505460D
:102670000F461446394A0121394805F055FF394BB8
:102680009B6A13F0100F31D11026364B9B6A13F062
:10269000080F32D1334B9B6A13F0020F34D1314B08
:1026A0009B6A13F0010F4BD12E4B9B6A13F0200F46
:1026B0004DD12C4B9B6A13F0100F01D1294B9B6A13
:1026C000284B9B6A13F0200F04D0264A536A23F448
:1026D00000535362234A936A43F0FF03936201213C
:1026E000284606F034F820703046F8BD1E4A012115
:1026F0001B4805F019FF1126C7E71C4A012118489D
:1027000005F012FF1226C5E7194A0121144805F009
:102710000BFF144A536B926A12F0800F01D11326FB
:10272000BDE7144A01210E4805F008FF37B10D4AF4
:10273000936A23F0800393621326B0E71326AEE773
:102740000D4A0121064805F0EFFE1426ACE70B4ABE
:102750000121034805F0E8FE1526AAE7A4BC000005
:1027600034B5000000ED00E0BCBC0000F0BC00008F
:1027700004BD00001CBD000034BD000054BD0000BD
:10278000F8B505460F461446374A0121374805F08B
:10279000CBFE374B9B6A13F4805F25D11626344B52
:1027A0009B6A13F4006F26D1314B9B6A13F4007FB0
:1027B00028D12F4B9B6A13F4806F3FD12C4B9B6A1F
:1027C00013F4807F41D12A4B9B6A13F4005F43D1FD
:1027D000274A936A43F47F4393620121284605F018
:1027E000B6FF20703046F8BD224A01211F4805F08F
:1027F0009BFE1726D3E7204A01211C4805F094FED2
:102800001826D1E71D4A0121184805F08DFE184A07
:10281000936B926A12F4004F01D11926C9E7184A46
:102820000121124805F08AFE37B1114A936A23F458
:10283000004393621926BCE71926BAE7114A012121
:102840000A4805F071FE1A26B8E70F4A0121074829
:1028500005F06AFE1B26BBE70C4A0121034805F080
:1028600063FE1C26B4E700BF84BD000034B5000041
:1028700000ED00E09CBD0000F0BC0000B0BD000019
:10288000CCBD0000E4BD000000BE000054BD00004F
:1028900070B506460D462B4A01212B4805F044FE33
:1028A00000232B70294BDC6A14F002040AD1274B59
:1028B000DB6A002B0DDB254BDC6A14F080440ED163
:1028C000204670BD224A01211F4805F02DFE00243C
:1028D000F6E7204A01211C4805F026FEF0E71E4AD3
:1028E0000121194805F020FE3046FFF78BFD98B90D
:1028F000164B9B6A13F0FF0F16D1144B9C6A14F40D
:102900007F4418D1114B9B6AB3F5803FD8D3304632
:10291000FFF7BAFD0446D3E73368104A01210A489D
:1029200005F00CFE3468CBE72A4601213046FFF75C
:102930009DFE0446C4E72A4601213046FFF720FFEA
:102940000446BDE718BE000034B5000000ED00E00D
:1029500030BE000054BE000064BE000084BE000013
:1029600030B58BB01F4B5D68C5F30805002383F3BA
:102970001188BFF36F8F0DF12603FFF761FD044649
:102980000DF12702294605F0E4FE9DF827300BB132
:102990000BB030BD05460DF1040C20686168A268DB
:1029A000E368ACE80F0020696169A269E369ACE8FB
:1029B0000F009DF826304BB1089BC3F308025AB9AB
:1029C0006FEA53236FEA4323089305E0089B23F43F
:1029D000FF7323F00103089301A92846FFF7BAFC0F
:1029E000D6E700BF00ED00E0064B5A6942F0100246
:1029F0005A615A6942F480625A615A6922F00802A7
:102A00005A61704700ED00E0EFF30880EFF30981B1
:102A100001B57246FFF7A4FF01BD00BF002080F39F
:102A20001488BFF36F8F002080F30A8880F30B882F
:102A3000104880F3088800200F49087001F080F9E1
:102A400000200E490860BFF34F8F00F02FF82020C0
:102A500080F311880A484FF40061401880F3098818
:102A6000EFF314800221084380F31488BFF36F8FC3
:102A700000F0F6F8582300201113002094ED00E038
:102A800018160020084BD3F89000C0F3072000234D
:102A900006E0054AC2F898300021C2F8A0100133C0
:102AA0008342F6DB704700BF00ED00E010B572B660
:102AB000002484F31388FFF7E5FF234608E003F1C1
:102AC00020010E4A4FF0FF3042F821000133DBB203
:102AD0000F2BF4D9002308E003F16001074A4FF0FF
:102AE000FF3042F821000133DBB20F2BF4D962B67C
:102AF000BFF34F8FBFF36F8F10BD00BF00E100E049
:102B000008B50A4B9B68834202D002F0DBFE08BD89
:102B1000EFF30583002BF8D0054B5A6842F0805242
:102B20005A605A6A22F400425A62EEE7980C00207A
:102B300000ED00E016498A684FF030001044EFF3D2
:102B4000098C80E8F01F202080F31288BFF36F8F7C
:102B5000104F4FF000664A698A603E60D2F8B400B8
:102B60000D4C2060D2F8B8000023C2F8B83080F3D2
:102B7000118802F1300090E8F01F8CF3098802F10F
:102B8000000004B505F020FEBDE8044070470000D9
:102B9000980C002004ED00E0C00B00201EF0040F94
:102BA0000CBFEFF30880EFF30980816911F8021C74
:102BB0000229FFD001B5724605F0BDFD01BD00BF81
:102BC000002807DB00F01F02400901239340024A5E
:102BD00042F82030704700BF00E100E000280CDB25
:102BE00000F01F024009012393402030034A42F8BD
:102BF0002030BFF34F8FBFF36F8F704700E100E0CD
:102C0000002808DB4901C9B200F1604000F56140CD
:102C100080F80013704700F00F004901C9B2014B62
:102C20001954704714ED00E04209054B53F8222077
:102C300000F01F00012303FA00F01040704700BFAE
:102C400000E100E0044B23F07F03044A9360BFF3EC
:102C50004F8FBFF36F8F70470000000000ED00E062
:102C600008B5FFF7EFFF074AD2F8883023F4700366
:102C7000C2F88830FFF798FAFFF7A2FA00F04EF892
:102C800002F024F800ED00E010B4A2F120040E4997
:102C900042F8081C21F0010142F8081C42F8203CCF
:102CA000019B42F81C3C029B42F8183C039B42F8F3
:102CB000143C4FF0807342F8043C04650023C0F8D4
:102CC000B83010BC704700BF9113000000B50E462D
:102CD00015460D4B9860D0F8B4200C4B1A60D0F814
:102CE000A43083F30B882C4686F309880020044B1C
:102CF00098472046002100220023024C2047000074
:102D0000D987000091130000980C0020C00B002010
:102D1000014B10221A61704700ED00E0002206E02E
:102D200003F00F030949194420230B760132B2F551
:102D3000877F0ADC13B2002BF2DB03F1604303F55B
:102D40006143202183F80013F0E77047FCEC00E0BA
:102D500008B5EFF30583103B044A02EBC301496851
:102D600052F833008847FFF73DFB08BD28AC000050
:102D700010B584B00A4C23460A4A01210A4805F0DE
:102D800024FE0023019302930393084B0193E41A5A
:102D90000294012101A805F01CFE04B010BD00BF83
:102DA00000F0022000000020A0BE00000003002070
:102DB000024B034AC3F8C020704700BF00ED00E09B
:102DC000AAFF4400034BC3F89800C3F89C10C3F853
:102DD000A020704700ED00E00E4BC3F89800C3F848
:102DE0009800D3F89C000A7A60F304020A72D3F8C0
:102DF000A020C2F34202087A62F347100872D3F8A7
:102E00009C2022F01F020A60D3F8A03023F01F0399
:102E1000CB60704700ED00E070B505460E4600241B
:102E200000E00134A6421EDD04EB44039A0005EBEA
:102E3000830359680029F4D0A85805F020FD04EB5D
:102E400084030B4A42F8230010F1160F0CD0094BF3
:102E50001B78984209DA04EB840302EB8301043106
:102E6000FFF7BAFFDDE7002070BD6FF01500FBE74C
:102E7000C40B00200E13002010B504460A4BD3F8F3
:102E80009030C3F30723013B984203D805F0D1FCEF
:102E9000204610BD0346054A0121054805F04EFBBA
:102EA0006FF01500F5E700BF00ED00E0B0BE0000D8
:102EB0002CB500002DE9F04F87B0814600910193B9
:102EC0001446002648E03346614A0121614805F076
:102ED00035FB6FF0150407E03B465F4A01215D4872
:102EE00005F02CFB6FF01504204607B0BDE8F08F0D
:102EF000D84564D12946C0B205F0D2FC2BE0574A30
:102F0000C2F89870D2F89C3003F01F0321F01F0123
:102F10000B43C2F89C302946E0B205F0C1FC0446E0
:102F200010F1160FE0D0013415E0013B4B49C1F818
:102F30009870D1F8A02002F01F0223F01F03134362
:102F4000C1F8A0302946E0B205F0AAFC044610F111
:102F5000160FC9D001340136009B9E42C4DA06EB3D
:102F600046054FEA850A09EB85056F68002FF2D008
:102F7000019B23B1284605F070FC0028A3D03946F8
:102F800059F80A0005F07BFC074610F1160FA3D094
:102F90008442A1DD314BC3F89800D3F89C2022F085
:102FA0001F02C3F89800D3F8A03043F01F0859F867
:102FB0000A306968194401F1FF3B934298D093426B
:102FC0009DD0D845B1D0013B2449C1F89870D1F8C3
:102FD000A02002F01F0223F01F031343C1F8A0300A
:102FE0002946E0B205F05CFC044610F1160F3FF4F0
:102FF0007BAF0130194BC3F89870D3F89C109DF843
:10300000102061F304028DF81020D3F8A030C3F330
:103010004203D2B263F347128DF8102059F80A30F8
:103020006A681344029323F01F03A8EB0B08434480
:10303000013B23F01F03059302A9C0B2FFF71CFF59
:10304000044610F1160F3FF44FAF013483E700BF81
:10305000D8BE00002CB50000FCBE000000ED00E072
:1030600010B5034C01232278FFF724FF207010BD18
:103070000E130020044B0522C3F89420BFF34F8F9A
:10308000BFF36F8F704700BF00ED00E0BFF35F8FAD
:10309000024B0022C3F89420704700BF00ED00E00F
:1030A00038B51C4B1D681C4BD3F89030C3F3072375
:1030B0009D422BD8FFF7EAFFFFF77AFE002407E0D6
:1030C000144B596801EB0411204605F0B2FB0134A2
:1030D000A542F5D81148057005F001FC10F1160F56
:1030E00013D00E4B1A780C4BD3F89030C3F3072350
:1030F0009A4207DA084BC3F898200021C3F8A010C1
:103100000132F0E7FFF7B6FF002038BD4FF0FF3087
:10311000FBE700BF20BF000000ED00E00E13002021
:1031200030B587B00D4611460024009401940294F6
:1031300003940494059402228DF80220044A01921B
:10314000049005951A46684604F00AF807B030BDA9
:10315000DB89000008B5024B1B689847002008BDBA
:10316000D80B0020034B1860034A937843F0020306
:1031700093707047D80B0020E000002008B5064986
:1031800021F00701C1F1005202F53C32034804F07E
:103190003FFB002008BD00BF5F230020DC0B0020A8
:1031A00068B108B5064A074B1B680749A1FB031322
:1031B0009B0C00FB03F042F00103984708BD7047E9
:1031C000C0B50000EC01002083DE1B43234BD3F885
:1031D0002436C3F3080282F48072C3F309438832B1
:1031E0004FF47A6101FB03F31D4901FB02335B00DD
:1031F0001C4AA2FB0312D20B4FF4FA2101FB12313D
:10320000B1F57A3F00D30132174BC3F80429134BB1
:10321000D3F82036C3F3080282F48072C3F3094363
:1032200002F217224FF47A6101FB03F342F21C51C0
:1032300001FB02331B0A0B4AA2FB031292094FF453
:103240007A7101FB1231B1F5FA7F00D30132064BDE
:10325000C3F81C270122C3F80026704700C0FF00F6
:10326000F82A0080D34D62100000125008B5044BBC
:10327000044A1A6000F008F8FFF7A8FF002008BD14
:10328000EC0100200020A107024B0122C3F8042416
:10329000704700BF002008E0094BD3F80C3403F45A
:1032A0008033014618B1B3FA83F2520902701BB1A0
:1032B0000B781BB100207047002070470120704739
:1032C00000E01050004870473C0C0020034BC01A2F
:1032D0008010034B03FB00F0704700BFFC0B002085
:1032E000B76DDBB638B505460C46FFF7EFFF014674
:1032F0004022034805F0F4FB01462846A04738BDAC
:1033000088AB000030B583B005460C46FFF7DEFF02
:103310000146402300932346054A064805F0FAFB80
:10332000011E01DB03B030BD2846A047FAE700BF0D
:103330005D8B000088AB000008B5022806D0042889
:1033400003D10021044805F0B9FB08BD0121024862
:1033500005F0B4FBF9E700BF88AB000010B582B000
:10336000EFF31184202383F31288BFF36F8F134A86
:10337000136843F00201116013F0010F09D100231B
:1033800084F31188BFF36F8F93B905F0EFFB02B0A0
:1033900010BD0DF10700FFF77FFF9DF807300BB15F
:1033A0000023EDE7FFF78EFF05F076FB0123E7E74B
:1033B0000021034805F082FBE9E700BF4C0C002028
:1033C00088AB000010B5EFF31184202383F312883B
:1033D000BFF36F8F074A136823F00201116013F0E7
:1033E000010F04D084F31188BFF36F8F10BD05F077
:1033F000C2FBF7E74C0C002070B50546012806D14A
:103400002C4BD3F8503403F00303012B4BD006F0C0
:1034100029FE044618B9284B1B78002B38D1EFF34E
:103420001186202383F31288BFF36F8F01241CB908
:10343000204B0422C3F808231E4BD3F84C24D3F8A6
:103440004C3403F0030312F4803F03D0012B25D04A
:10345000012D23D0F4B1304605F0D2F9154BD3F845
:10346000403413F0FF0FE7D1124BD3F80831002B93
:10347000E2D0104B0022C3F80821D3F80821012222
:10348000C3F840240D492020C1F8A0011A61D3E7F8
:103490000026CCE7012005F073FBDFE724B186F3BB
:1034A0001188BFF36F8F70BD024B0422C3F8042351
:1034B000F9E700BF00E010501113002000E100E028
:1034C00000B585B0CDF800D0CDF804D0002302932C
:1034D000012303936B46074A05F038FB002805DB00
:1034E00043F609520023684601F048FD05B05DF837
:1034F00004FB00BFDD8B0000F8B506460022012169
:1035000040F2051005F054F9114800F0B1FCD8B9AB
:10351000074600F0CBFC002403E00123AB601C4411
:10352000E4B2012C0ED82146304605F065FA054676
:103530002146304605F06DFA064904F06AFE031E86
:10354000EBDA1F463846F8BD6FF00407FAE700BF14
:103550003933000068BF000010B504460E4B01214E
:10356000D3E8EF2FC3E8E01F0028F9D11AB1631E9A
:10357000012B0DD910BD094805F04BFA084900236D
:103580004B608B60CB6001238B6004F05FFEEEE745
:103590002046FFF731FFEDE7F80B002088AB000075
:1035A000E80B002010B504460A2806D0E1B2064810
:1035B00083685B689847204610BD034883685B6852
:1035C0000D219847F2E700BF08AC000010B5044C8D
:1035D0002046FFF7C7FD2046FDF7D4FE10BD00BF13
:1035E000A535000008B5054806F0DDFC18B1FFF769
:1035F000EDFF002008BD6FF01200FBE708AC0000F3
:10360000036803F01F0202605B09012B06D0022B46
:1036100006D00BB10020704702487047024870473F
:103620000248704700A0105000820D500004055061
:10363000022806D0012806D008B9044870470020A7
:103640007047034870470348704700BFA8AB0000AD
:10365000E8AB0000C8AB000038B504464568284612
:1036600005F0A7FB20B91149204605F051FB38BDF4
:10367000A86806F0F0FB0028F5D10021A86806F044
:10368000E6FB80B900220A49A86806F0D8FB0022B0
:103690000121DB2005F08CF80022012140F20D1001
:1036A00005F086F8DFE76FF00400E0E7738E0000B6
:1036B000558E0000036803F01F0202605B09012BB6
:1036C00006D0022B06D00BB100207047024870478D
:1036D000024870470248704700A0105000820D5009
:1036E00000040550F0B583B001900C4617461E4605
:1036F00001A8FFF7DFFF0199203150F82130094D73
:103700001D4044EA470444EA86039DF8202043EA2A
:1037100002239DF8242043EA02432B4340F8213042
:1037200003B0F0BDF0F0FCFF2DE9F04F85B0074687
:103730008B469146002423E04FF0FF3535E0C9F871
:103740000456012603963146B5F1FF3F16D0B1F17C
:10375000FF3F40F02A8157F8083013F4004F02D0A1
:1037600001260022039200220192CDF800A0C3F3AB
:103770004123324603992846FFF7B4FF0134E4B2EF
:103780005C4580F016814FEA840857F82430C3F373
:10379000C322C3F30805082A00F20D818A4911F8F3
:1037A00002A040F2FF129542C6D01B0E4E2B00F233
:1037B000058101A252F823F03F370000F5380000E0
:1037C000033900000F3900001D3900002B390000BB
:1037D00037390000BD390000BD390000BD39000097
:1037E000BD390000BD390000BD390000BD39000001
:1037F000BD390000BD390000BD390000BD390000F1
:10380000BD390000BD390000BD390000BD390000E0
:103810005139000063390000753900008739000014
:10382000BD390000BD390000BD390000BD390000C0
:10383000BD390000BD390000BD390000BD390000B0
:10384000BD390000BD390000BD390000BD390000A0
:10385000BD390000BD390000BD390000BD39000090
:10386000BD390000BD390000BD390000BD39000080
:10387000BD390000BD390000BD390000BD39000070
:10388000BD390000BD390000BD390000BD39000060
:10389000BD390000BD39000099390000BD39000074
:1038A000BD390000BD390000BD390000BD39000040
:1038B000BD390000BD390000BD390000BD39000030
:1038C000BD390000BD390000BD390000BD39000020
:1038D000BD390000BD390000BD390000BD39000010
:1038E000BD390000BD390000BD390000BD39000000
:1038F00045390000C9F80C56002603964FF0FF31F9
:1039000022E7C9F810560126039631461CE7C9F88C
:103910000856002603964FF0FF3115E7C9F8005608
:1039200000260123039331460EE7C9F80456012609
:103930000396002108E7C9F80856002603964FF0C1
:10394000FF3101E7C9F81056012603963146FBE620
:10395000C9F8605557F80810C1F3004101260396D5
:10396000F2E6C9F8645557F80810C1F30041012682
:103970000396E9E6C9F8685557F80810C1F3004105
:1039800001260396E0E6C9F86C5557F80810C1F314
:10399000004101260396D7E60421284605F0ECFBFA
:1039A000012603964FF0FF31CEE6284605F0DCFBFA
:1039B000D1E6002004E06FF0150001E06FF0850013
:1039C00005B0BDE8F08F00BF1CC00000F8B505468B
:1039D0000E46476806F046FB20B9154B1B7843B1ED
:1039E000002300E0012353B9284605F079FC044682
:1039F00011E00123F7E784F31188BFF36F8FEFF332
:103A00001184202383F31288BFF36F8F284605F0BB
:103A1000F4FB0028EFD07B6A1E700122796A2846E9
:103A200005F0F4FB84F31188BFF36F8FF8BD00BF7E
:103A30001113002038B5044645680121E86805F0F7
:103A400074FC636818686B69C0F8243505F11801C7
:103A500005F0B7FB204605F0FAFB00B138BD02497E
:103A6000204605F09CFBF9E79393000038B50E4C17
:103A700021686568501A63EB050C400940EACC6088
:103A80004FEA401C11EB0C0145EBD06521606560ED
:103A900006490A604B60064B00240025C3E9004537
:103AA00002F03AF938BD00BF800800206808002005
:103AB0007808002008B500220121E42004F078FEF7
:103AC000164AD2F8183723F44033C2F818370020CA
:103AD00000F0BEFD002820DB1149012000F000FEAF
:103AE00000281ADB00F08CFD20F01F000D4B186041
:103AF00059600D4B186059600C4B4FF0FF304FF080
:103B0000FF31C3E90001002209490A4B187A00F08D
:103B100085FD094B67221A60002008BD00200E5069
:103B2000E8010020800800206008002068080020CC
:103B30006D3A0000E00100207C0C002008B500F088
:103B40005FFD064A13685268C01A61EB0201044B1C
:103B500018605960400940EAC16008BD8008002033
:103B600078080020F0B583B00146254B187A254B24
:103B70001C685D68244B1A685B689D4208BF9442CC
:103B80002BD0CB175B0143EAD16349011F4E32684A
:103B90007668DFF87CC0DCF80070DCF804E012EB3B
:103BA000070C46EB0E0E11EB0C0243EB0E0315490E
:103BB0000A604B60944275EB03011ED2B4EB0C0417
:103BC00065EB0E05C82C75F10005B4BF012100217D
:103BD000009100F0C9FD03B0F0BDB1F1806FD0D20B
:103BE000490100D10121074B0C1945F100051C606A
:103BF0005D60012200F0F0FDEDE70021E8E700BF85
:103C0000E0010020700800206808002080080020E3
:103C100078080020074BD3F84023D3F844331C2AFC
:103C200001D000207047012B01D0002070470120F7
:103C3000704700BF00C0FF00074BD3F84023D3F804
:103C400044331C2A01D000207047012B01D00020F2
:103C500070470120704700BF00C0FF00044BD3F83D
:103C600040331C2B01D0002070470120704700BF5B
:103C700000C0FF00074BD3F84023D3F844331C2A7D
:103C800001D000207047012B01D000207047012097
:103C9000704700BF00C0FF00036813F0020F0DD093
:103CA000036813F0010F0DD0074B0922C3F80C2550
:103CB0000F22C3F8042501221A60FEE7034B0360BC
:103CC000EF3B0360704700BF00801050F000FA50D7
:103CD000036813F0020F0DD0036813F0010F0DD02D
:103CE000074B0922C3F80C250F22C3F80425012233
:103CF0001A60FEE7034B0360EF3B0360704700BFB1
:103D000000801050F000FA5008B50848FFF7C4FFD3
:103D10000748FFF7C1FF0748FFF7DAFF0648FFF73C
:103D2000D7FF0648FFF7B8FF08BD00BF00C50D501C
:103D300008C50D5010C50D5018C50D5000C70D50C9
:103D400008B5394B0122C3F80028FFF787FF18B1E7
:103D5000364B0122C3F80C24FFF7D6FF344AD2F8C1
:103D60008C3043F44063C2F88C30002309E0314AC0
:103D700003F1800152F8310002EBC1025268026087
:103D800001333F2B0DD803F180022A4951F832202C
:103D9000B2F1FF3F05D003F1800251F83220002A32
:103DA000E5D1214BD3F840341BB91F4BC822C3F8CF
:103DB0004024FFF741FF48B11E4BD3F834231E4B7C
:103DC0009A4203D8184B1D4AC3F84026FFF752FF0A
:103DD00018B11B4B1B4AC3F8AC27FFF71BFF48B1B8
:103DE000114B3422C3F82426D3F83C2622F40022B7
:103DF000C3F83C26144BD3F8003613F0010F04D05F
:103E0000114B6FF00102C3F80026104A0323C2F8D9
:103E100018350749D1F88C3043F44063C1F88C3031
:103E20000023C2F8A03508BD000012500030055034
:103E300000ED00E000C0FF00001D0A1840E0A91ED0
:103E400000A0085078000A0400E0105000B00450B0
:103E500008B5024B1B68984708BD00BF800C0020C6
:103E600008B5024B1B68984708BD00BF800C0020B6
:103E700008B50B4B1B797BB9094B186001221A71ED
:103E800000B1084800F02CF928B9054B186800B1BA
:103E9000054800F031F808BD6FF07700FBE700BF80
:103EA000800C0020513E0000613E000008B5034B2D
:103EB0001B680BB105F0E9FA08BD00BF800C0020BB
:103EC00010B50C4B0422C3F8082301225A610022CA
:103ED000C3F80821D3F8083142F21074054BD3F827
:103EE0004C3413F4803F04D0012005F08FFA013CDC
:103EF000F4D110BD00E0105008B5084B1B7953B940
:103F0000064B186001221A7105F0E6FA044BC3F85B
:103F10004004002008BD6FF07700FBE7880C00200C
:103F200000E0105000B583B02E4BD3F84C24D3F8EA
:103F30004C3403F003038DF8073012F4803F1FD197
:103F4000284BD3F8483413F0010F1ED105F0C4FA02
:103F50008DF807009DF80720224BC3F8402400226B
:103F6000C3F80821D3F8082101221A611E4B1B68EF
:103F700063B31C4B0422C3F8042303B05DF804FBB5
:103F80000DF1070005F0AAFAE4E7164BD3F8503418
:103F900003F003038DF807300DF1070005F09EFADA
:103FA0000028D7D0104B1B6823B10E4B0422C3F856
:103FB0000423E2E70B4BD3F80831002BFAD0094B6E
:103FC0000022C3F80821D3F80831D6E7054BD3F80F
:103FD0000831002BFAD0034B0022C3F80821D3F894
:103FE0000831CAE700E01050880C002008B51C4BCF
:103FF000D3F80C0300F00C0007E01A4B1B6898473D
:10400000174BD3F80C0300F00C0040B3B0FA80F06B
:10401000C0F11F00012303FA00F283009BB203F5F5
:1040200080739BB2C0B203F1A04303F58713002154
:1040300019601B68D3B20A4AC2F80833042BDCD1DA
:10404000D2F84C14D2F84C2412F0030FD5D1044A04
:104050000121C2F84014C2F804331161D0E708BD51
:1040600000E01050880C0020044BD3F840331C2B88
:1040700001D0002070470120704700BF00C0FF0042
:1040800010B5154B7122C3F8082301225A60002293
:10409000C3F80021D3F80031FFF7E6FF10B10E4B53
:1040A0000122DA6042F2107406E0012373B10120AC
:1040B00005F0ACF9013C07D0074BD3F80C3413F4EE
:1040C000803FF2D10023F1E7002300E0012313B188
:1040D000024B00225A7110BD00E01050900C0020DD
:1040E000054B1B792BB9044B186001221A71002073
:1040F00070476FF077007047900C002008B5184BA0
:104100000022C3F81021D3F81011C3F81821D3F8F6
:104110001811C3F81421D3F81431FFF7A5FF10B11B
:104120000F4B01229A600E4B0022C3F80021D3F8F6
:10413000002101221A600B4B1B6823B1084B71222E
:10414000C3F8042308BD064BD3F80031002BFAD086
:10415000034B0022C3F80021D3F80031F2E700BF7F
:1041600000E01050900C002008B51E4BD3F80C0353
:1041700000F0710013E01C4B02225A71194B00220F
:10418000C3F81421D3F814212022C3F80423164BBA
:104190001B689847134BD3F80C0300F07100F8B17B
:1041A000B0FA80F0C0F11F00012303FA00F283008F
:1041B0009BB203F580739BB2C0B203F1A04303F539
:1041C0008713002119601B68D3B2064AC2F808336E
:1041D000102BD0D0402BDAD1034B00225A71D6E7F6
:1041E00008BD00BF00E01050900C002030B401F575
:1041F000A27150F821500E4C2C4040F8214050F84C
:10420000214041F6F07C0CEA021C1B0403F440330D
:104210004CEA030C9DF808301B0503F480134CEAAC
:10422000030C44EA0C0440F8214030BC704700BF46
:104230000FE0ECFF036803F01F0202605B09012B33
:1042400006D0022B06D00BB1002070470248704701
:10425000024870470248704700A0105000820D507D
:104260000004055000B583B0019001A8FFF7E2FFFC
:10427000019A203250F82210044B0B4043F0020305
:1042800040F8223003B05DF804FB00BFF0F0FCFF03
:1042900030B585B086460D4694460C4B93E8070032
:1042A00004AB03E90700734609E004AA02EB8302AA
:1042B00052F80C2C146A4CF8044B146201330EEBC8
:1042C00005029A42F1D805B030BD00BFA0B500008C
:1042D0004309034AD35C00F01F001844C0B2704782
:1042E000ACC00000014B03EB80007047F0010020E0
:1042F000014B03EBC0007047C4C0000030B583B071
:1043000005460191002400E00134022C18D80E4B20
:104310001B5D03F0070202A901EBD30313F8043C71
:10432000D34013F0010FEFD005EB840201212046AA
:10433000FFF7AEFF55F82430002BE5D0012000E058
:10434000002003B030BD00BFBCC0000070B5044603
:104350000D461E4604984FF0000C01E00CF1010CD4
:1043600084450ED25FFA8CF2920002F580719208B9
:10437000012303FA02F21542F0D000236350635880
:10438000ECE715F4003F04D00023C4F84431D4F81E
:104390004431064B9C4207D040F20D1004F0FEF968
:1043A0000EB1C4F8145370BDDB20F7E700A00D5028
:1043B0002DE9F04784B081460F46904600230193D3
:1043C00002930393516801A8FFF798FF4DE094FA18
:1043D000A4F4B4FA84F404F01F05264B9B5D45EA6F
:1043E00043152846FFF774FF083037F810A0CAF3CA
:1043F000820A01AB03EB8603E00804F007041A5CB1
:104400000121A14022EA01021A54284605F057F979
:10441000034652462946384605F028FB284605F053
:104420005DF904AB03EB860353F80C4C002CCED1A2
:104430000136022E0DD8104B9B5D08F10402D908FD
:1044400003F00703525C22FA03F313F0010FEFD0DD
:10445000E7E700224FF40031484605F095F8D8F818
:10446000041001A8FFF74AFF08B10026E1E704B0F5
:10447000BDE8F087C0C00000BCC0000010B5D0F897
:10448000103523F00203C0F8103540F6FF73C0F872
:10449000283300220AE0930003F5C07C002440F892
:1044A0000C40DBB28033C4500132D2B20B2AF2D9B5
:1044B0000123036669B1074B074A1068074AA2FB4C
:1044C0000020800C00EB4000C0EB401043F00103E3
:1044D000984710BDD0B50000EC01002083DE1B43DF
:1044E000024BD3F81005C0F34000704700200E5077
:1044F00003498B680122824013438B60704700BFE1
:1045000040000020027A0A4BD3F8103523F0010353
:104510005AB101221343064AC2F810350368C2F8A3
:10452000A4364368C2F8AC3670470022F2E700BFF9
:1045300000200E5070B582B02D4BD3F82C4320E0F4
:104540002C4B01F10C0203EBC20553F832206B68CF
:104550004FEA800C284D55F80C6096B1002645F8BE
:104560000C60244D01EB41064FEA860CAC44DCF8AC
:104570000C6001EB41014FEA810C6544296900910F
:10458000B04794B394FAA4F0B0FA80F001238340CA
:10459000DD4324EA0304174B1A1892F8541001EB78
:1045A000410C4FEA8C021344DB68B3B1134AD2E8E2
:1045B000EF3F03EA0506C2E8EC6FBCF1000FF6D14D
:1045C000C34013F0010FBBD0094A00F152031D0193
:1045D00002EB03135B685259BAE78000064B1A5886
:1045E000002ACED000221A50CBE702B070BD00BF27
:1045F00000200E504000002000210E50C800002076
:10460000054BD3E900014FF0FF3383426FF0404385
:104610008B41F5D3704700BF40270E5010B40A4CB1
:10462000231893F8543003EB430C04EB8C0CCCF8B8
:104630000C10CCF810208CF8140001238340034A9E
:10464000C2F8243310BC70474000002000200E50F8
:1046500030B585B01F4B1C78002C38D105461E4A5A
:1046600001AB07CA83E807001C49D1F8102522F0E6
:104670000202C1F810251846FFF744FF672005F035
:104680002FFC052810D06FF08B001EE0204605F0AF
:1046900032FC104B04EB440103EB81010875034429
:1046A00083F854400134E4B2042CEFD90B4C0023BE
:1046B0002A466721204605F033FC01212046FFF7FA
:1046C000DDFE044B01221A70002005B030BD6FF0F2
:1046D0007700FAE740000020ACB5000000200E5043
:1046E00030B583B004460D461B4B5B6803F00103F5
:1046F000019301A804F08EFE002825DB164B1875E7
:10470000002028705A6822F001025A60FFF7F0FE7C
:10471000FFF7E6FED0B92146104805F0C0FB104B6C
:104720001B68104AA2FB03239B0C03EB431300E01E
:10473000013B3BB1094AD2F84017D2F8442712F0A6
:10474000804FF5D12BB1002003B030BD6FF0770062
:10475000FAE76FF07300F7E74000002000200E50EA
:10476000EC01002083DE1B4370B515461C469DF806
:104770001010164A131893F854300C3302EBC3068A
:1047800042F833507460B1B1114A00F1520319017B
:1047900002EB03135550C4F313025A6080000D4E10
:1047A0000644336883B1FFF72BFFA842A1410BD227
:1047B0000023336008E0064B5230020103EB001087
:1047C0009D50C4F31304446070BD00BF400000203E
:1047D00000200E5000210E5070B40F4C231893F897
:1047E00054300C3304EBC30C54F83350DCF8046041
:1047F0004D1946F1000644F83350CCF8046021F01E
:10480000004141EAC271000100F1A04000F56220C0
:10481000C0F8281570BC70474000002082B08DF8A9
:104820000400C9B28DF8051040EA0120054BC3F819
:104830000005044BD3F8003413F0010FF9D002B097
:10484000704700BF00B0045004280CD8DFE800F027
:10485000030D0507090006487047064870470648DB
:10486000704706487047064870470648704700BFC3
:10487000D4C00000F8C0000008C1000014C100004E
:1048800024C10000E4C0000030B108B505F0F0FB21
:1048900020B1037823B108BD024870470148FAE708
:1048A0000048F8E734C1000010B50446FDF76EF883
:1048B000034A0121034803F037FE204605F083FB3D
:1048C0003CC1000034B500002DE9F04782B000AFD4
:1048D00005460C46EFF31188202383F31288BFF3BB
:1048E0006F8FDFF8C491D9F80860FFF7ADFF99F832
:1048F0001010E94601233B7103237B718AB0EC461B
:104900001CF1100221D04FF0160E5AB17346BEF1C1
:10491000040F03DDDFF894A1CCF814A0082B01DD0F
:10492000CCF8185001233B7003237B70D2B173463F
:10493000BEF10C0F01DDCCF81C00102B01DDCCF812
:1049400020100CF1240300210AE06FF0004EDCE798
:1049500001F10800384410F8080C03F8010B01318C
:104960000129F5D9BEF1150F50DD16234AB10521F5
:10497000397100217971B9710121F9717868CCF828
:10498000100000216FF300016FF341016FF382010A
:104990006FF3C501012060F38811C3F30A0363F3C9
:1049A00053216FF31F5100234148FDF7CFF8CD4647
:1049B0001CB1E369C3F308035BBB3046FFF764FF38
:1049C000E94601233B7103237B718AB0EC461CF15D
:1049D000100224D04FF0120E52B17346BEF1040FF4
:1049E00002DD3449CCF81410082B01DDCCF8186036
:1049F00001233B7003237B70F2B1BEF10C0F01DD8C
:104A0000CCF81C000CF12003002113E06FF01B0315
:104A1000ACE7294A0121264803F086FDCDE76FF077
:104A2000004ED9E701F10800384410F8080C03F8EB
:104A3000010B01310129F5D9BEF1110F31DD12232E
:104A40004AB10421397100217971B9710121F971DB
:104A50007868CCF8100000216FF300016FF341017A
:104A60006FF382016FF3C501012060F38811C3F376
:104A70000A0363F353216FF31F5100230C48FDF722
:104A800065F8CD4621462846FFF70EFF88F31188CA
:104A9000BFF36F8F3046FEF733F80837BD46BDE8E9
:104AA000F0876FF01B03CBE7980C00204CC100008F
:104AB00034B5000098C1000074C10000F0B587B0A3
:104AC00000EB4006104D05EB861600EB80000F4B07
:104AD00003EB80030E4A0592012204920F220392F7
:104AE00000220292019200930A4B4FF4A0720A49ED
:104AF00001EB8011304600F089FA737B23F0040348
:104B0000737307B0F0BD00BF88080020980C002028
:104B1000B0C10000D79F0000181E002038B5054620
:104B20000B4B53F8204002E02368984708346B1C75
:104B3000074A52F82330A34209D960680028F3D00D
:104B4000037F13F0010FF1D105F014FAEEE738BD41
:104B5000C0C1000008B553EA020102D100F088FE8E
:104B600008BD0249183001F03DF8F9E789A20000BC
:104B700010B586B0184C14E0636A0593236A049359
:104B8000E3690393A3690293636901932369009323
:104B9000E368A2686168206800F038FA23685C6501
:104BA00030340E4B9C42E7D300F03CFD0A4C00E051
:104BB00030340A4B9C420BD2A26AE36AB3F1FF3F46
:104BC00008BFB2F1FF3FF3D02068FFF7C3FFEFE764
:104BD00000F040FD06B010BDA0B40000A0B400007D
:104BE00008B50A4B01221A700320FFF797FFFDF763
:104BF000CFFA0420FFF792FFFFF7BAFFFBF7B4FEEE
:104C0000034A137B23F00103137308BD1113002023
:104C10004809002008B50146014A0248FEF756F847
:104C2000E14B00004809002010B50446FFF746FF9D
:104C300004EB44030A4901EB83110A4A04EB8403A1
:104C400002EB8303D9601C74074B03EBC42303F509
:104C5000006304EB840402EB8402536010BD00BFC8
:104C600088080020980C00201816002070B586B027
:104C700000F028FD104D114B5D61114B0593012390
:104C80000493002403940294019400940D4B4FF478
:104C900080620D49284600F0B9F906466B7B23F087
:104CA00004036B73284605F07AFA2046FFF7BCFF31
:104CB000304606B070BD00BF48090020980C0020A7
:104CC000B8C10000E14B0000581F002008B50020CB
:104CD000FFF724FF194B03F5006282F3088883F382
:104CE0000A88174CE02384F822300023E3772376E8
:104CF0006376A37684F82030626A42F4E02262622E
:104D000084F82330FDF770FEFEF702F84FF0FF3312
:104D1000A362E362FEF7C4F9FEF72AF8FCF78CFD04
:104D2000084800F0D9F90120FFF7F8FE0220FFF74C
:104D3000F5FEFFF79BFFFFF76DFF00BF1816002081
:104D400000ED00E0080A00202DE9F04182B00446A1
:104D5000EFF31187202181F31288BFF36F8FC168B1
:104D600099B9002950D1364B9B6893F90E302361D5
:104D70000131E160324B9B68A36087F31188BFF378
:104D80006F8F002002B0BDE8F08116461D46826894
:104D90002B4B9B689A42E4D055EA060136D092F933
:104DA0000E80414693F90E0005F022F9804534DC6F
:104DB0004FF000080096019522463946214800F040
:104DC00043FB0028DED0EFF31185202383F3128804
:104DD000BFF36F8FA36843B323689C4223D013B300
:104DE000216993F90E0005F003F90146204605F00C
:104DF0000AF9E8B9B8F1000F1AD185F31188BFF3A9
:104E00006F8F6FF00A00BDE72369B0E787F3118861
:104E1000BFF36F8F6FF00F00B4E70146204605F037
:104E2000F2F88046C6E72169E0E7B8F1000FE4D068
:104E30002946044800F0CAFB6FF00A00A2E700BF51
:104E4000980C0020BC0C0020F8B58368002B47D0DC
:104E50000446264A9268934245D1C368012B04D97F
:104E6000013BC36000252846F8BDEFF311862023DF
:104E700083F31288BFF36F8F016905F0C4F82768C8
:104E8000A7420CD03D1E18BF012557B9A760CDB968
:104E90000023E36086F31188BFF36F8FE3E70027F9
:104EA000F0E77A683B6813605A6000233B607B60E0
:104EB0007A7B22F002027A73BB6007F1180005F0DA
:104EC0008BFAE3E797F90E3023610025C7F8BC5051
:104ED000384605F064F93146054800F077FBC2E733
:104EE0006FF01505BFE74FF0FF35BCE7980C0020C9
:104EF000BC0C0020F8B50446EFF31187202383F3A0
:104F00001288BFF36F8F0568A84212D02E1E18BFFB
:104F1000012685B906BBA368E268934224D001222A
:104F20001344A36000230BBB87F31188BFF36F8F7B
:104F3000F8BD0025EAE76A682B6813605A60002311
:104F40002B606B606A7B22F002026A73AB6005F132
:104F5000180005F041FADDE70023C5F8BC3028460B
:104F600005F01DF90123DEE70022D9E739460248A2
:104F700000F02CFBDCE700BFBC0C002010B582B0B9
:104F8000EFF31181202484F31288BFF36F8F8468BC
:104F900044B1013C846081F31188BFF36F8F00201E
:104FA00002B010BD53EA020406D0009201930246FB
:104FB000054800F049FAF3E781F31188BFF36F8FDA
:104FC0006FF00F00ECE700BFBC0C002008B553EAFF
:104FD000020102D100F04CFC08BD0249183000F07B
:104FE00001FEF9E789A2000010B5044640B11F2276
:104FF00004F1840005F014FD002084F8A30010BD26
:10500000014B9C68F3E700BF980C00202DE9F04F9E
:1050100085B004460F4615461E46DDF838A0DDF87B
:105020003C90DDF84080DDF84CB000F1580383651A
:10503000C365129B0422119905F01CF82A463946D3
:10504000204604F0FAFF0546CDF80880CDF804901C
:10505000CDF800A03346024639462046FDF714FE3F
:105060000023636584F86C302667C4F874A0C4F824
:105070007890C4F87C80EFF31182202383F31288A8
:10508000BFF36F8F134B196AC4F880101C6282F350
:105090001188BFF36F8FBBF1000F13D01F22594649
:1050A00004F1840005F0BCFC002384F8A330094B14
:1050B0009B685BB1D3F8B030C4F8B030284605B077
:1050C000BDE8F08F002384F88430F0E7C4F8B030F6
:1050D000F4E700BF980C00200123437303730023FF
:1050E000C0F8A430C0F8A830C0F8B030014B9860C8
:1050F000704700BF980C00200A4A9368C3F8B800B4
:105100006FF00A01C3F8BC1007494B6843F08053A5
:105110004B60002383F31188BFF36F8F9368D3F83C
:10512000BC007047980C002000ED00E0437B90F934
:105130000D20002A51DB13F01F0F4ED110B563F084
:105140007F034373254A52F8183F93420ED1002340
:105150000CE05A6842600360106058601EE01A4616
:105160001E49C9698A420FD01B687BB173B190F99F
:105170000E1093F90E209142F1D0521A002AE8DC69
:105180001A46002BECD1F0E70023EEE7134BDA6967
:1051900003F11801016042601060D8610F4B53F8B1
:1051A000184F9C420ED06CB10C4B9B685A7B12F08E
:1051B0001F0F0AD1DA897F2A07D9A2692AB9074ABB
:1051C000536109E0054BDC68EEE7A34202D02046BC
:1051D00000F064FC014B5C6110BD7047980C00202E
:1051E00010B5437B90F90D20002A14DB154B9A680B
:1051F00053F8184F9C4219D0C4B1824219D0537B46
:1052000013F01F0F15D1D3897F2B12D9A36983B94E
:105210000C4B5A6114E003F07F0343734268036848
:1052200013605A60002303604360DFE7054BDC68CE
:10523000E3E7A24202D0204600F030FC014B5C6163
:1052400010BD00BF980C00202DE9F84305460C4620
:10525000414B9E68737B13F0600F2BD013F0200F2F
:105260002DD008271F4225D13B43737313F0800FC5
:1052700027D1082F30D04FF00009374B53F8188F43
:1052800098454ED0B8F1000F4BD0334B9B68434547
:1052900002D0404600F002FC2F4BC3F81480102FC0
:1052A00008D0304603F095FA304600F057FCB9F1CB
:1052B000000F3AD184F31188BFF36F8F46E01027B7
:1052C000D0E703F07F0373737268336813605A602A
:1052D000002333607360CCE7B3685BB172683368F6
:1052E00013605A60002333607360727B22F0020205
:1052F0007273B360304604F01EFF06F1580004F0EC
:105300001FFF154B9B689E4202D04FF00009B4E787
:10531000EFF3058313B94FF00009AEE74FF0010931
:10532000ABE70D4BD3F80C80AFE70C48FFF7D4FE8A
:10533000C0E7EFF31184202383F31288BFF36F8F4C
:1053400004F054FE84F31188BFF36F8F6B7B13F06E
:10535000600FEED1BDE8F883980C0020080A002009
:10536000B3F1FF3F08BFB2F1FF3F00D1704708B56E
:105370000249183000F036FC08BD00BF89A20000C9
:1053800010B5437B90F90D20002A0ADB437B63F0C4
:105390007F0343732B4A52F8183F934219D10023DD
:1053A00017E003F07F0343734268036813605A6099
:1053B000002303604360E9E75A68426003601060BD
:1053C00058601EE01A461F49C9698A420FD01B68FF
:1053D0007BB173B190F90E1093F90E209142F1D088
:1053E000521A002AE8DC1A46002BECD1F0E7002321
:1053F000EEE7144BDA6903F11801016042601060B6
:10540000D861104B9A6853F8184F9C420ED06CB17B
:1054100082420ED0537B13F01F0F0AD1D3897F2B0A
:1054200007D9A3692BB9074B5A6109E0054BDC6822
:10543000EEE7A24202D0204600F030FB014B5C6157
:1054400010BD00BF980C002010B50C4611460A484C
:1054500082680A4B1A60EFF31183202383F31288CA
:10546000BFF36F8FDDE90223806804F08CFE2046D5
:10547000FFF742FE10BD00BF980C0020BC0C0020BE
:105480002DE9F04104460E460023EFF3118520225A
:1054900082F31288BFF36F8F1F4650E003F07F0343
:1054A00063736268236813605A600023236063603B
:1054B00071B2A173637B63F07F036373424A52F856
:1054C000183F93420ED100230CE05A6862602360BB
:1054D00014605C601CE01A463B48C06982420DD0F3
:1054E0001B686BB163B193F90E209142F3D0521A4D
:1054F000002AEADC1A46002BEED1F2E70023F0E79F
:10550000314BDA6903F11801216062601460DC61DB
:105510002D4B53F8188F984520D0B8F1000F1DD0AF
:10552000294B9B68984502D0404600F0B7FA264BBD
:10553000C3F8148085F31188BFF36F8F0123002B0C
:105540003FD1637B03F01F02002A0CBF0127002715
:10555000A4D013F0020F05D1A673EBE71A4BD3F8D2
:105560000C80DDE7A1686268236813605A6000233D
:105570002360636070B2A0730B6899420DD1002361
:105580000BE05A686260236014605C60D2E79C465E
:105590004A6894450DD01B686BB163B193F90E2036
:1055A0009042F4D0121A002AEBDC9C46002BEFD17B
:1055B000F2E70023F0E74B68216063601C604C60F9
:1055C000B8E73846BDE8F081980C002008B50B46D6
:1055D00059B9EFF3058242B9064A50699268904280
:1055E00003D00846FFF788FD03E083F31188BFF37B
:1055F0006F8F08BD980C002008B5034650B9EFF333
:1056000005823AB9064A51699268914202D0FFF781
:1056100073FD03E083F31188BFF36F8F08BD00BFF4
:10562000980C00200023EFF31181202282F31288CE
:10563000BFF36F8F09E0064B9A68D37B013BD373AE
:1056400081F31188BFF36F8F0123002BF3D07047D4
:10565000980C002038B50023EFF31185202282F347
:105660001288BFF36F8F0EE0154BDC6817E0A24283
:1056700002D0204600F012FA114B5C6185F31188CC
:10568000BFF36F8F0123BBB90D4B9A68D17B0131FA
:10569000D17353F8184F9C42E6D0002CE4D0537BD2
:1056A00013F01F0FE3D1D3897F2BE0D9A369002B1F
:1056B000DDD1034B5A61E1E704F011FE38BD00BFB4
:1056C000980C002008B5024804F014FE08BD00BF85
:1056D000AC0C002038B5EFF31184202383F312883B
:1056E000BFF36F8F224B9A68DB699A4205D013682B
:1056F000516812680A60516006E00023F8E71C4A0E
:10570000D269934212D01B6893B1194A906890F9FC
:105710000E1093F90E209142F1D0521A002AEEDDBC
:105720005A6842600360106058600AE00023EBE7AB
:105730000F4B9A68D96903F11800106051600A6034
:10574000DA610B4B53F8185F9D420DD065B1084BE1
:105750009B689D4202D0284600F0A0F9044B5D6191
:105760002046FFF7C9FC38BD014BDD68EFE700BFFD
:10577000980C0020F8B551EA000328D005460C46E5
:10578000EFF31187202383F31288BFF36F8F154E39
:10579000B068154B1860FFF723FDB0682A46234612
:1057A0001249183000F01EFA0446B268537B43F0E9
:1057B000040353733846FFF79FFCB3689A6ADB6AA9
:1057C000B3F1004F08BF002A05D00020F8BDFFF755
:1057D00081FF0020FAE704F02EFE201A0028F5DCF5
:1057E0000020F3E7980C0020BC0C002089A20000E8
:1057F00038B504460D46FFF7BDFF02462046B5F119
:10580000FF3F08BFB4F1FF3F2CD0D1174FEA411C36
:105810004CEAD26C53019B1A6CEB010C4FEA8C0CD6
:105820004CEA937C9B00981841EB0C01C90041EABB
:105830005071C00047F61123C01841F1000147F62E
:105840001223984271F100030BD3084B834243F6B5
:1058500008538B4107D347F612220023FAF70EFEB6
:1058600000E0002038BD6FF00040FBE7ED85FFFF52
:1058700038B5EFF31185202383F31288BFF36F8FC0
:10588000437B13F0040F04D185F31188BFF36F8FAE
:1058900038BD0446183004F09FFD637B23F00403F9
:1058A00063732046FFF742FC29460248FFF78EFE4D
:1058B000EEE700BFBC0C0020014B9868704700BFAA
:1058C000980C00202DE9F843037B03F00107EFF368
:1058D0001186202383F31288BFF36F8F457B15F069
:1058E000080F1AD10446B14600F1580804F0EFFB46
:1058F00010B345F020056573EFF305839BB1314686
:105900002046FFF7A1FC67B1002383F31188BFF3A2
:105910006F8F0423184602DF03E086F31188BFF37C
:105920006F8FBDE8F88341463F4B986804F0D1FB88
:105930003046FFF7E1FBE6E745F00803637313F039
:10594000800F36D1A3685BB16268236813605A6028
:10595000002323606360627B22F002026273A36013
:1059600004F1180004F038FD404604F0E9FB2E4B2A
:105970009A6894422AD000262B4B53F8185F9D4218
:105980002BD055B3AA4202D0284600F087F8264B08
:105990005D61204602F01DFF204600F0DFF8FEB9F1
:1059A000214B9B689C421FD089F31188BFF36F8FF6
:1059B000A9E705F07F0545F008056573626823686F
:1059C00013605A60002323606360BBE7EFF3058335
:1059D0000BB90026D0E70126CEE7134BDD68D1E7EF
:1059E0001248FFF779FBDBE7EFF30583002BDBD1F0
:1059F000237B13F0010F12D089F31188BFF36F8F4F
:105A0000002383F31188BFF36F8F0423184602DF4E
:105A1000EFF31189202383F31288BFF36F8F484679
:105A2000FFF76AFB6FE700BF980C0020080A002010
:105A3000044BC01AC010044B03FB00F0034B0122BF
:105A40001A547047C80A0020ABAAAAAAC00C0020AA
:105A5000C3897F2B11D80E4B1B687BB190F90E20A8
:105A60000C4B1B689A420CDB437B13F01F0F0AD1CF
:105A7000094B984209D0012300E0002303F0010004
:105A800070470023FAE70023F8E70023F6E700BF9A
:105A9000F8010020C40C00208808002070B50546DD
:105AA0000D4B1E7C06EB46030C4C04EBC304204656
:105AB00004F092FC0A4B00229A552846FFF7C8FFD3
:105AC00000B970BD074B1A68013AD3170649204642
:105AD00000F088F8F5E700BF980C0020C80A002005
:105AE000C00C0020F8010020315A000038B5EFF357
:105AF0001185202383F31288BFF36F8F144B9C68AA
:105B0000144B1B68A34217D0124B00221A60104B93
:105B10001B7C114AD35C53B12046FFF799FF30B18B
:105B2000637B13F01F0F0FD02046FFF7B7FF85F3FD
:105B30001188BFF36F8F38BD2046FFF7AFFF85F3A5
:105B40001188BFF36F8FF6E72046FFF719FCEBE7EC
:105B5000980C0020BC0C0020C00C0020EFF3118139
:105B6000202383F31288BFF36F8F0C4B1B6A834291
:105B700005D1D3F88020094B1A620AE013461BB105
:105B8000D3F880208242F9D11BB1D0F88020C3F82D
:105B9000802081F31188BFF36F8F7047980C00202D
:105BA000034B1868984200D070470020FCE700BF04
:105BB000FC01002030B1044A5268904201D00068D4
:105BC00070470020704700BFFC01002008B5044B5F
:105BD0001B680BB1002008BDFDF7B0FFFBE700BF5D
:105BE000C80C00202DE9F04F83B0B3F1FF3F08BF90
:105BF000B2F1FF3F0ED0044691461F46816000235C
:105C0000EFF3118A202282F31288BFF36F8F1D46B3
:105C1000019335E0002501952846019903B0BDE8C0
:105C2000F08FFFF7D3FF8046013547F10006451995
:105C300046EBE07625616661344A13685268ED18D8
:105C400046EB020301934FF0010B38E0C91A66EBF3
:105C50000202016142614368636020601C6044602D
:105C600005E02B4B5A682360626014605C60FFF7AC
:105C700097FF844237D08AF31188BFF36F8F0123D7
:105C8000002BC9D14D460197002FCADA1F4B196866
:105C90005B68691843EB07036FF00102521A4FF07B
:105CA000FF3161EB030310461946012A73F100032B
:105CB00001DA01200021206161614FF0000BFFF744
:105CC0006FFF0028CDD001694669236962698B4264
:105CD00072EB060EBADB5B1A62EB060223616261AD
:105CE000FFF768FFEDE70B4B1B68002BC3D1BBF13F
:105CF000000F06D0404604F054FB0021FDF732FFB0
:105D0000B9E7FFF763FF8046F4E700BFE00A002031
:105D1000FC010020C80C002070B5EFF31186202391
:105D200083F31288BFF36F8F2A4B1860FFF738FF99
:105D3000044623E0284A136851685B1941EBE5717A
:105D40001360516000220023C4E90423204604F0BC
:105D500011FB86F31188BFF36F8FA3682046984725
:105D6000EFF31186202383F31288BFF36F8F194A54
:105D700013685B1B1360FFF713FF04463CB12569F2
:105D80006169144B1A68D317AA428B41D2DA44B125
:105D9000236962690F4909685B1A62EBE17223614A
:105DA00062610D4A0B4D2868136851681B1841EB5E
:105DB000E0711360516000242C60204604F0F1FA79
:105DC0002146FDF7CFFE86F31188BFF36F8FFFF7F3
:105DD0008DFE70BDC80C0020E00A002010B5002226
:105DE000EFF31184202383F31288BFF36F8F1346E0
:105DF00011460CE0FFF7EAFE074A13685168C31822
:105E000041EBE07184F31188BFF36F8F0122002A08
:105E1000F0D0184610BD00BFE00A0020F8B5EFF33F
:105E20001183202282F31288BFF36F8F026822B1A0
:105E300083F31188BFF36F8FF8BD04461D46826A55
:105E4000C36A52EA030105D0B3F1FF3F08BFB2F1C4
:105E5000FF3F27D1236B01332363236A6BB185F3A3
:105E60001188BFF36F8F236A20469847EFF311859F
:105E7000202383F31288BFF36F8F04F11803A46902
:105E8000A34252D0002C50D0204604F0A3F90023A6
:105E9000C4F8BC3085F31188BFF36F8F204604F03F
:105EA0007EF9C9E716461F46012A73F1000301DA9D
:105EB00001260027013E47F1FF3704F0C0FA013008
:105EC00041F10001801947EB0101012871F1000146
